:020000040800F2
:10000000980B00209D010008552900089127000841
:1000100051290008EF050008E13600080000000043
:10002000000000000000000000000000292E000871
:10003000FB0700080000000057290008A92E00084F
:10004000B7010008B7010008B7010008B7010008B0
:10005000B7010008B7010008B7010008B7010008A0
:10006000B7010008B7010008B7010008B701000890
:10007000B7010008B7010008B7010008B701000880
:10008000B7010008D1060008B7010008B701000851
:10009000F5050008B701000805060008B7010008CB
:1000A000B7010008B7010008B7010008B701000850
:1000B000B7010008B7010008B7010008B701000840
:1000C000B7010008B7010008B7010008B701000830
:1000D000B7010008C9350008DD350008B701000880
:1000E000B7010008B7010008B7010008B701000810
:1000F000B7010008B7010008B7010008B701000800
:10010000B7010008B7010008B7010008B7010008EF
:10011000B7010008B7010008B7010008B7010008DF
:10012000B7010008B7010008E1060008B7010008A0
:10013000B70100080000000000000000B70100083F
:10014000B70100081506000825060008B7010008D9
:10015000B7010008B7010008B7010008B70100089F
:10016000B7010008B7010008B7010008B70100088F
:10017000B7010008B70100080000000000000000FF
:10018000B7010008B7010008DFF80CD000F0F2F961
:1001900000480047F1380008980B002006488047C7
:1001A00006480047FEE7FEE7FEE7FEE7FEE7FEE75C
:1001B000FEE7FEE7FEE7FEE7652F0008890100087D
:1001C0002DE9F05F0546002092469B46884606468C
:1001D000814640241BE0284641464746224600F01F
:1001E00024F953465A46C01A914110D31146184675
:1001F000224600F00BF92D1A67EB01084F46224604
:100200000120002100F002F917EB00094E41201EE9
:10021000A4F10104DFDC484631462A464346BDE8E6
:10022000F09FD2B201E000F8012B491EFBD27047CB
:100230000022F6E710B513460A4604461946FFF7B2
:10024000F0FF204610BD2DE9FE4F81EA030404F0C3
:10025000004421F0004100944FF0000B23F00043D4
:1002600050EA01045ED052EA03045BD0C3F30A549F
:10027000C1F30A552C44A4F2F3340194A0FB0254B8
:10028000C1F3130141F48011C3F3130343F480134A
:1002900001FB024400FB034E840A970A44EA81549E
:1002A00047EA8357A4FB076802958D0A05FB07857B
:1002B0004FEA932C04FB0C542705029D4FEA065885
:1002C00047EA1637B5EB08056EEB070C870E920E62
:1002D00047EA811742EA8312A7FB0201B6EB0B0142
:1002E00064EB00042B0D43EA0C335E1844EB1C5006
:1002F000DA465146E7FB0201C5F313044FEA0B331C
:1003000043EA14534FEA0432019C43EA0603A4F182
:100310000C040294009CCDE900B400F0DCF803B0BA
:10032000BDE8F08F00200146F9E70EB5C10F80EA65
:10033000E0700844CA07002140F233438DE80E0004
:100340000A460B4600F0C7F803B000BD00F00042BB
:1003500030F000400AD0C10D01F56071C0F3160005
:1003600042EA0151C208400711437047002001468C
:100370007047000030B5041E71F1000404DB4FF03B
:100380000044404264EB0101141E73F1000405DBDC
:100390001C464FF00043524263EB04038B4208BFFC
:1003A000824230BD30B5041E71F1000404DB4FF011
:1003B0000044404264EB0101141E73F1000405DBAC
:1003C0001C464FF00043524263EB0403994208BFBE
:1003D000904230BD01F0004330B421F0004150EABA
:1003E000010206D00A0DA2F56072C1F31301002AC2
:1003F00002DC30BC00207047440F44EAC104C10055
:10040000E01830BC00EBC25000F01FB8202A04DB1B
:10041000203A00FA02F1002070479140C2F1200317
:1004200020FA03F3194390407047202A04DB203A56
:1004300021FA02F00021704721FA02F3D040C2F104
:10044000200291400843194670470029A8BF704711
:10045000401C490008BF20F00100704710B4B0FAFA
:1004600080FC00FA0CF050EA010404BF10BC704795
:1004700049B1CCF1200421FA04F411FA0CF118BFAF
:10048000012121430843A3EB0C01CB1D4FEA00617E
:100490004FEA102042BF002010BC704700EBC35051
:1004A00010440029A4BF10BC7047401C490008BF7D
:1004B00020F0010010BC704710B5141E73F1000449
:1004C00008DA401C41F1000192185B411A4301D146
:1004D00020F0010010BD2DE9F04D92469B4611B170
:1004E000B1FA81F202E0B0FA80F220329046FFF7D2
:1004F0008DFF04460F4640EA0A0041EA0B015346CD
:100500005A46084313D0114653EA010019D0C8F1E6
:1005100040025046FFF789FF05460E4650465946B1
:100520004246FFF773FF084305D0012004E0204650
:100530003946BDE8F08D0020054346EAE0762C43BD
:1005400037430A986305E40AA0EB08000022FD0A7D
:1005500044EA47540A3002D500200146E9E7010584
:1005600010196941DDE9084500196941BDE8F04D00
:10057000A2E70000064C074D06E0E06840F00103EA
:1005800094E8070098471034AC42F6D3FFF700FE1A
:100590008C390008AC39000870B58C1810F8015B74
:1005A00015F0070301D110F8013B2A1106D110F80C
:1005B000012B03E010F8016B01F8016B5B1EF9D110
:1005C0002B0705D40023521E0DD401F8013BFAE796
:1005D00010F8013BCB1A921C03E013F8015B01F801
:1005E000015B521EF9D5A142D8D3002070BD00BFD7
:1005F000FEE7000010B5024800F059FB10BD0000F6
:100600000806002010B5024800F051FB10BD0000A4
:100610000806002010B5024800F049FB10BD00009C
:100620003006002010B5024800F041FB10BD00006C
:100630003006002030B58BB005462349286809688C
:1006400088421AD1002006900790012008900020CF
:1006500001900290039004900590012009900A9067
:1006600001A9284600F0B8F9284600F0EAFD022169
:10067000284600F0F1F8044620E01449286809688B
:1006800088421BD10F20069000200790012008907F
:1006900000200190029003900490012005900990A1
:1006A0000F200A9001A9284600F096F9284600F08C
:1006B000C8FD1021284600F0CFF804460CB100F028
:1006C0009DF80BB030BD0000080600203006002069
:1006D00010B5024800F054FE10BD0000380700209D
:1006E00010B5024800F04CFE10BD0000D8060020F6
:1006F0000146087810381823B0FBF3F20848805CF4
:10070000C865032A05D908686FF30900001D8865CC
:1007100003E008686FF309008865886D7047000082
:100720006C390008014600208A6A8B69CBB932B166
:10073000012A0DD0022A03D0032A10D10EE000BFF7
:10074000CB6A03F08073B3F1807F00D1012007E012
:10075000CB6AB3F1C07F00D1012001E000E000BF0F
:1007600034E08B69B3F5005F1AD132B1012A07D0AA
:10077000022A03D0032A11D10AE000BF01200EE0B3
:10078000CB6A03F08073B3F1807F00D1012006E0D3
:10079000CB6AB3F1C07F00D1012000E000BF15E0BB
:1007A00032B1012A05D0022A04D0032A0CD103E079
:1007B00000BF00BF012008E0CB6A03F08073B3F1F3
:1007C000807F00D1012000E000BF00BF704730B53E
:1007D0000468246824F4802405682C60046863603D
:1007E0008468402C04D10468A2600468E16003E0DE
:1007F0000468A1600468E26030BD70477047000083
:1008000010B52DED028BB0EE408AF0EE608A9FEDC0
:10081000100B53EC102B51EC180BFFF7C3FD00D25B
:100820000EE09FED0B0B53EC102B51EC180BFFF768
:10083000A1FD05D851EC180B81F0004141EC180BDB
:10084000B0EE480AF0EE680ABDEC028B10BD000065
:10085000000000000000000010B5024692F82030B1
:10086000012B01D0022B06D110684069084314689F
:100870006061002010BD506A40F480205062012069
:10088000F8E7F0B504460D461E4694F8207020683F
:100890008368A86800B900E000BF012F01D0022FD3
:1008A0007CD103F0806030B903F0006018B903F028
:1008B0008050002873D0C3F30161022905D9606A12
:1008C00040F4000060620120F0BD012088403060EB
:1008D000A86860B9B5F800C0E86840EA4C5C2068D8
:1008E00000F5C07000EB0110C0F800C00FE0D5E9C2
:1008F00001C040EACC00D5F80CC040EA0C00D4F8A6
:1009000000C00CF5C07C0CEB011CCCF80000D5F845
:1009100010C0206800F5C07000EB0110C0F804C0E2
:10092000287D01280ED1206800F5C07000EB011071
:10093000406840F4807C206800F5C07000EB011036
:10094000C0F804C0D079000692F806C040EA0C4016
:1009500092F805C040EA0C2C10794CEA000C206893
:1009600000F5C07000EB0110C0F80CC0D078000694
:1009700092F802C040EA0C4092F801C040EA0C2014
:1009800092F800C040EA0C00D4F800C00CF5C07C1E
:100990000CEB011CCCF80800206801E016E00FE029
:1009A00000F5C07000EB0110006840F0010C2068F9
:1009B00000F5C07000EB0110C0F800C0002083E714
:1009C000606A40F40010606201207DE7606A40F4D4
:1009D00080206062012077E7F0B504460A4621686E
:1009E00094F82050012D01D0022D7ED1424901F50D
:1009F0000071086840F001000860086820F47C502D
:100A000008600868566A40EA06200860107D00F019
:100A10001F06012000FA06F3C8699843C861A1F5D2
:100A20000071D069C8B9D1F80C029843C1F80C0222
:100A3000908880B2968940EA064601F510705769A1
:100A400040F83760108880B2168940EA064601F502
:100A50001070576900EBC7004660D069012819D1B2
:100A6000D1F80C021843C1F80C02908880B21688A5
:100A700040EA064601F51070576940F837609089E2
:100A800080B2168940EA064601F51070576900EBFE
:100A9000C7004660906928B9D1F804029843C1F8AC
:100AA000040204E0D1F804021843C1F804021069FA
:100AB00028B9D1F814029843C1F8140204E0D1F81F
:100AC00014021843C1F81402106A012804D1D1F8A5
:100AD0001C021843C1F81C02D1F8000220F00100EA
:100AE000C1F800020020F0BDFFE7606A40F48020FA
:100AF00060620120F7E7000000640040704770B5B5
:100B0000044694F82050012D01D0022D7DD151B919
:100B10002068C06800F0030080B9606A40F40010EB
:100B20006062012070BD2068006900F0030028B9F0
:100B3000606A40F4001060620120F3E7206800F56D
:100B4000D87000EB0110006800F00400906090681D
:100B500040B9206800F5D87000EB01100068400D26
:100B6000106007E0206800F5D87000EB0110006805
:100B7000C0085060206800F5D87000EB01100068D4
:100B800000F00200D060206800F5D87000EB011082
:100B9000406800F00F001061206800F5D87000EB8D
:100BA0000110406800F47F40000A9061206800F561
:100BB000D87000EB01104068000C5061206800F50F
:100BC000D87000EB011080681870206800F5D870AC
:100BD00000EB0110806800F47F40000A5870206824
:100BE00000F5D87000EB0110806800F47F00000C65
:100BF0009870206800F5D87000EB01108068000E36
:100C0000D870206800F5D87000E02FE000EB0110EC
:100C1000C0681871206800F5D87000EB0110C0683A
:100C200000F47F40000A5871206800F5D87000EB8E
:100C30000110C06800F47F00000C9871206800F576
:100C4000D87000EB0110C068000ED87131B920686F
:100C5000C06840F020002668F06005E02068006968
:100C600040F020002668306100205BE7606A40F4B5
:100C700080206062012055E70146002091F8202085
:100C8000012A01D0022A11D10B689B6803F080630E
:100C900003B1401C0B689B6803F0006303B1401C68
:100CA0000B689B6803F0805303B1401C70472DE92B
:100CB000F05F04460025206846692068D0F804905B
:100CC000206887682068D0F80CA02068D0F810B0A1
:100CD0002068D0F8188006F00100002855D007F0F1
:100CE0000100C0B101202168886007F0020018B13E
:100CF000204600F0D6FA0EE007F0040010B145F4EB
:100D0000006508E007F0080010B145F4805502E0E6
:100D1000204600F0C5FA07F48070C8B14FF4807027
:100D20002168886007F4007018B1204600F0BBFA13
:100D30000EE007F4806010B145F4005508E007F4B8
:100D4000006010B145F4804502E0204600F0AAFAA8
:100D500007F48030C8B14FF480302168886007F410
:100D6000003018B1204600F0A0FA0EE007F4802011
:100D700010B145F4004508E007F4002010B145F437
:100D8000803502E0204600F08FFA06F0080038B106
:100D90000AF0100020B145F4007510202168C860E9
:100DA00006F0040040B10AF0080028B108202168CC
:100DB000C860204600F01EFA06F0020038B1206834
:100DC000C06800F0030010B1204600F015FA06F0EC
:100DD000400038B10BF0100020B145F480651020C0
:100DE0002168086106F0200040B10BF0080028B12E
:100DF000082021680861204600F020FA06F0100063
:100E000038B12068006900F0030010B1204600F0FE
:100E100016FA06F4003040B109F0100028B1102095
:100E200021684860204600F00BFA06F4803040B19B
:100E300009F0080028B1082021684860204600F029
:100E400035FA06F4004088B309F0040078B306F4DC
:100E5000807020B108F0010008B145F0010506F4EA
:100E6000007020B108F0020008B145F0020506F458
:100E7000806020B108F0040008B145F0040506F4D4
:100E80000060A0B108F0700088B108F07000402840
:100E900017D006DC10280BD020280CD0302819D110
:100EA0000CE0502810D0602814D110E01DE019E0AB
:100EB00045F008050FE045F010050CE045F0200571
:100EC00009E045F0400506E045F0800503E045F403
:100ED000807500E000BF00BF2068806920F07000CE
:100EE000216888610420216848602DB1606A284328
:100EF00060622046FFF702FEBDE8F09F70B5044631
:100F00000CB9012070BD94F8200010B9204600F003
:100F1000AFF82068006820F002002168086000F047
:100F20000FFD05460DE000F00BFD401B0A2808D917
:100F3000606A40F400306062052084F820000120DF
:100F4000E0E72068406800F002000028EBD120684C
:100F5000006840F001002168086000F0F1FC0546DF
:100F60000DE000F0EDFC401B0A2808D9606A40F44F
:100F700000306062052084F820000120C2E720686C
:100F8000406800F001000028EBD0207E012806D147
:100F90002068006840F080002168086005E0206853
:100FA000006820F0800021680860607E012806D17A
:100FB0002068006840F040002168086005E0206873
:100FC000006820F0400021680860A07E012806D15A
:100FD0002068006840F020002168086005E0206873
:100FE000006820F0200021680860E07E012806D11A
:100FF0002068006820F010002168086005E0206883
:10100000006840F0100021680860207F012806D1A8
:101010002068006840F008002168086005E020684A
:10102000006820F0080021680860607F012806D170
:101030002068006840F004002168086005E020682E
:10104000006820F0040021680860D4E90201084328
:1010500021690843616908436168491E08432168A2
:10106000C86100206062012084F82000002049E768
:1010700010B586B00446142101A8FFF7D9F85749E6
:10108000206888424AD156480068401C544908608C
:101090000846006801280FD100BF00200090514889
:1010A000006840F000704F4908600846006800F092
:1010B0000070009000BF00BF00BF002000904948B2
:1010C0001038006840F001004649103908600846B1
:1010D000006800F00100009000BF00BF4FF4C05056
:1010E0000190022002900020039003200490092028
:1010F000059001A93C4800F023FB00221146142072
:1011000000F0A8FC142000F095FC002211461620E7
:1011100000F0A0FC162000F08DFC5DE03349206853
:10112000884259D100BF002000902E48006840F04E
:1011300080602C4908600846006800F080600090DC
:1011400000BF00BF26480068401C254908600846CB
:10115000006801280FD100BF0020009021480068DE
:1011600040F000701F4908600846006800F00070F9
:10117000009000BF00BF00BF002000901948103849
:10118000006840F0020017491039086008460068FE
:1011900000F00200009000BF00BF4FF440500190EB
:1011A0000220029000200390032004900920059063
:1011B00001A90F4800F0C4FA00221146412000F0B6
:1011C00049FC412000F036FC00221146422000F08C
:1011D00041FC422000F02EFC06B010BD006400402F
:1011E0003004002040380240000002400068004007
:1011F000000402407047000010B58AB004460E4952
:1012000020680968884215D100200190029001AB46
:1012100003AA00210848FFF772FC0398B0F5007F8D
:1012200007D90398B0F5017F03D801A9039801F00D
:10123000C1FB00BF0AB010BD080600207047704710
:10124000704770B5044694F82000012822D102208E
:1012500084F820002068006820F001002168086000
:1012600000F06EFB05460DE000F06AFB401B0A280B
:1012700008D9606A40F400306062052084F82000DC
:10128000012070BD2068406800F001000028EBD10B
:101290006062F6E7606A40F4002060620120F0E7D7
:1012A000704770477047704770477047704770B518
:1012B0000446A56D00F044FB064694F8350002286C
:1012C00008D08020606500BF002084F8340000BF93
:1012D000012070BD2068006820F0160021680860B9
:1012E0002068406920F0800021684861206C08B9BE
:1012F000A06C28B12068006820F008002168086010
:101300002068006820F00100216808600FE000F00C
:1013100017FB801B05280AD92020606500BF00202C
:1013200084F8340000BF032084F83500D1E720683A
:10133000006800F001000028E9D194F85C103F201B
:101340008840A86000BF002084F8340000BF01205E
:1013500084F835000020BCE7014691F835000228EA
:1013600003D08020486501207047052081F83500B2
:101370000868006820F001000A6810600020F3E7A8
:10138000F8B50446002000908C4800684FF41651D0
:10139000B0FBF1F7A56D2E6894F85C10082088402A
:1013A000304098B12068006800F0040070B12068F7
:1013B000006820F004002168086094F85C100820A0
:1013C0008840A860606D40F00100606594F85C1092
:1013D00001208840304068B12068406900F08000FA
:1013E00040B194F85C1001208840A860606D40F026
:1013F0000200606594F85C1004208840304068B1B9
:101400002068006800F0020040B194F85C100420ED
:101410008840A860606D40F00400606594F85C103E
:1014200010208840304078B32068006800F0080041
:1014300050B394F85C1010208840A86020680068C1
:1014400000F4802080B12068006800F4002028B9F2
:10145000206CC8B12046216C884715E0A06C98B17B
:101460002046A16C88470FE02068006800F4807077
:1014700028B92068006820F0080021680860206C06
:1014800010B12046216C884794F85C1020208840D9
:101490003040002865D02068006800F01000002867
:1014A0005FD094F85C1020208840A86094F8350044
:1014B000052828D12068006820F0160021680860FF
:1014C0002068406920F0800021684861206C08B9DC
:1014D000A06C28B12068006820F00800216808602E
:1014E00094F85C103F208840A86000BF002084F87A
:1014F000340000BF012084F83500206D10B1204673
:10150000216D8847F8BD2068006800F4802080B114
:101510002068006800F4002028B9606C10B12046F3
:10152000616C88471DE0E06BD8B12046E16B8847CD
:1015300017E02068006800F4807068B920680068CF
:1015400020F010002168086000BF002084F83400FB
:1015500000BF012084F83500E06B10B12046E16B3C
:101560008847606D38B3606D00F00100F0B1052070
:1015700084F835002068006820F0010021680860C8
:1015800000BF0098401C0090B84200D905E02068D8
:10159000006800F001000028F3D100BF00BF002068
:1015A00084F8340000BF012084F83500E06C10B1ED
:1015B0002046E16C884700BFA4E700006C040020CF
:1015C0002DE9F0410446002500F0BAF9074614B9A8
:1015D0000120BDE8F081606A00B100BF00BF0020BB
:1015E00084F8340000BF022084F8350020680068C9
:1015F00020F00100216808600AE000F0A1F9C01B9A
:10160000052805D920206065032084F83500E0E72F
:101610002068006800F001000028EED1206805680D
:1016200021480540D4E901010843E16808432169E4
:10163000084361690843A1690843E1690843216AD5
:1016400008430543606A042803D1D4E90B01084329
:101650000543206805602068456925F00705606A34
:101660000543606A04280DD1A06A0543E06A48B1C9
:101670002046FFF757F828B140206065012084F824
:101680003500A6E7206845612046FFF731F8064699
:1016900094F85C103F208840B06000206065012015
:1016A00084F83500002094E73F8010F02DE9F047E2
:1016B00004460D4616461F464FF00008D4F85890D1
:1016C00000BF94F83400012802D10220BDE8F08761
:1016D000012084F8340000BF94F83500012825D19A
:1016E000022084F83500002060653B4632462946DA
:1016F0002046FFF76CF894F85C103F208840C9F84A
:1017000008002068006840F0160021680860206C1E
:1017100028B12068006840F008002168086020684F
:10172000006840F001002168086006E000BF00206A
:1017300084F8340000BF4FF002084046C6E70000BE
:10174000F8B502460B460025002400200021DCE00D
:10175000012606FA01F51E6806EA0504AC4273D1BB
:101760005E68012E08D05E68022E05D05E68112EDC
:1017700002D05E68122E13D190684F000326BE403F
:10178000B0434F00DE68BE40304390605068012691
:101790008E40B0431E79C6F300168E403043506031
:1017A000D0684F000326BE40B0434F009E68BE4045
:1017B0003043D0605E68022E02D05E68122E13D1D4
:1017C000CF0802F1200656F827004E07F70E0F2625
:1017D000BE40B0434F07FF0E1E69BE403043CF08E6
:1017E00002F1200646F8270010684F000326BE408D
:1017F000B0431E7906F003064F00BE403043106030
:101800005E6806F08056B6F1805F7DD100BF00268D
:101810000096404E366846F480463E4F3E603E4657
:10182000366806F48046009600BF00BF3A4E8F0827
:1018300056F827008E07370F0F26BE40B043374EAD
:10184000B24202D1002624E05EE0354EB24201D120
:1018500001261EE0334EB24201D1022619E0324E7B
:10186000B24201D1032614E0304EB24201D1042627
:101870000FE02F4EB24201D105260AE02D4EB242B2
:1018800001D1062605E02C4EB24201D1072600E028
:1018900008268F073F0FBE4030431F4E8F0846F883
:1018A0002700264E3068A0435E6806F48036B6F501
:1018B000803F00D12043214E3060361D3068A04368
:1018C0005E6806F40036B6F5003F00D120431B4E9B
:1018D000361D3060361D3068A0435E6806F4801601
:1018E000B6F5801F00D12043144E08363060361DF7
:1018F0003068A0435E6806F40016B6F5001F00D1FC
:1019000020430E4E0C363060491C1029FFF420AFE6
:10191000F8BD000044380240083801400000024091
:101920000004024000080240000C02400010024087
:101930000014024000180240001C0240003C01401C
:1019400001480068704700006004002003480068F8
:101950000349097808440149086070476004002081
:101960006804002010B50D48006840F400700B4971
:1019700008600846006840F4806008600846006817
:1019800040F480700860032000F0A2F8002000F00E
:1019900007F800F02BF8002010BD0000003C0240CA
:1019A00070B504460E4800784FF47A71B1FBF0F040
:1019B0000C490968B1FBF0F5284600F021FC08B19C
:1019C000012070BD102C07D200222146501E00F0CD
:1019D00041F80548046001E00120F2E70020F0E74B
:1019E000680400206C0400206404002008B500BFD7
:1019F000002000900E48006840F480400C490860C8
:101A00000846006800F48040009000BF00BF00BF9F
:101A100000200090081F006840F08050091F0860F7
:101A20000846006800F08050009000BF00BF08BD6D
:101A30004438024001460846002809DB00F01F0335
:101A400001229A4043099B0003F1E023C3F80021DF
:101A500000BF70472DE9F05F80460D46164600270F
:101A600001F05EFE074639462A46334601F007007C
:101A7000C0F1070ABAF1040F02D94FF0040A01E0DD
:101A8000C0F1070AD14600F1040ABAF1070F02D2E9
:101A90004FF0000A01E0A0F1030AD4464FF0010A1A
:101AA0000AFA09FAAAF1010A0AEA020A0AFA0CFA7F
:101AB0004FF0010B0BFA0CFBABF1010B0BEA030B24
:101AC0004AEA0B042146404601F032FEBDE8F09F91
:101AD00000BF00F00702064B19684FF6FF031940DC
:101AE000044B0B4343EA0221014B196000BF7047CE
:101AF0000CED00E00000FA0570B504460D460CB987
:101B0000012070BD5848006800F00F00A84209D2BB
:101B100055490D700846006800F00F00A84201D03A
:101B20000120EEE7207800F0020002281DD1207885
:101B300000F00400042805D14C48006840F4E0504F
:101B40004A490860207800F00800082805D1474875
:101B5000006840F46040454908604448006820F04F
:101B6000F000A168084341490860207800F00100B6
:101B7000A8B36068012807D13C4808380068C0F362
:101B80004040B8B90120BCE76068022802D0606814
:101B9000032807D1354808380068C0F3406048B9C9
:101BA0000120AEE7314808380068C0F3400008B9AA
:101BB0000120A6E72D48006820F003006168084373
:101BC0002A490860FFF7BCFE064609E0FFF7B8FEA9
:101BD000801B41F28831884202D9032091E707E057
:101BE0002248006800F00C006168B0EB810FEDD175
:101BF0001D48006800F00F00A84209D91A490D706D
:101C00000846006800F00F00A84201D0012078E7E4
:101C1000207800F00400042807D11448006820F45C
:101C2000E050E168084311490860207800F008009E
:101C3000082808D10D48006820F46040216940EA76
:101C4000C1000A49086000F03FF808490968C1F37B
:101C50000311074A515CC8400649086006480068FD
:101C6000FFF79EFE00204CE7003C0240083802408F
:101C7000743900086C0400206404002001480068E6
:101C8000704700006C04002000B5FFF7F7FF04491F
:101C90000968C1F38221034A515CC84000BD0000BD
:101CA000083802408439000800B5FFF7E7FF04490F
:101CB0000968C1F34231034A515CC84000BD0000CD
:101CC00008380240843900082DE9F0470024002537
:101CD0000026A1462548006800F00C0020B1042829
:101CE00005D008283AD105E0DFF8849039E0DFF824
:101CF000849036E01D48001F006800F03F041B4838
:101D0000001F006800F4800078B11A481749091FC5
:101D10000968C1F38811A0FB017001462246002327
:101D20003846FEF74DFA05460EE011480F49091FE7
:101D30000968C1F38811A0FB017001462246002307
:101D40003846FEF73DFA05460848001F0068C0F314
:101D50000140401C4600B5FBF6F902E0DFF81090A8
:101D600000BF00BF4846BDE8F087000008380240C9
:101D70000024F40040787D01F8B504460CB9012038
:101D8000F8BD207800F00100002874D0F948006800
:101D900000F00C0004280DD0F648006800F00C009C
:101DA000082813D1F348001F006800F48000B0F544
:101DB000800F0BD1EF4808380068C0F3404000287E
:101DC00059D06068002856D10120D9E700BF60686B
:101DD000B0F5803F08D1E7480838006840F480300B
:101DE000E449083908601EE06068B0F5A02F0DD105
:101DF000E0480838006840F48020DE49083908606F
:101E00000846006840F4803008600CE0D948083883
:101E1000006820F48030D749083908600846006817
:101E200020F48020086000BF606890B1FFF788FD53
:101E3000054606E0FFF784FD401B642801D9032016
:101E40009EE7CC4808380068C0F340400028F1D035
:101E500011E0FFF775FD054606E0FFF771FD401B39
:101E6000642801D903208BE7C24808380068C0F312
:101E700040400028F1D1207800F0020002285FD114
:101E8000BC48006800F00C0058B1BA48006800F087
:101E90000C0008281CD1B748001F006800F480001F
:101EA000B0B9B44808380068C0F3400020B1E06819
:101EB000012801D0012063E7AE480838006820F00F
:101EC000F800216940EAC100AA490839086037E0F2
:101ED000E06800B30120A8490860FFF731FD05461E
:101EE00006E0FFF72DFD401B022801D9032047E73C
:101EF000A04808380068C0F340000028F1D09D4891
:101F00000838006820F0F800216940EAC1009949CA
:101F10000839086014E0002097490860FFF710FDB9
:101F2000054606E0FFF70CFD401B022801D90320FF
:101F300026E7904808380068C0F340000028F1D137
:101F4000207800F0080008282CD16069A8B1012091
:101F50008A490860FFF7F4FC054606E0FFF7F0FC4D
:101F6000401B022801D903200AE782486C30006830
:101F7000C0F340000028F1D014E000207F49086041
:101F8000FFF7DEFC054606E0FFF7DAFC401B0228FF
:101F900001D90320F4E677486C300068C0F34000B4
:101FA0000028F1D1207800F00400042870D1002727
:101FB00070483830006800F0805090B900BF0020B1
:101FC00000906C483830006840F0805069493831E2
:101FD00008600846006800F08050009000BF00BF15
:101FE00001276748006800F48070B0B96448006851
:101FF00040F4807062490860FFF7A2FC054606E0E5
:10200000FFF79EFC401B022801D90320B8E65C487C
:10201000006800F480700028F2D000BFA06801289A
:1020200008D154486830006840F0010051496831D7
:1020300008601DE0A06805280DD14E486830006892
:1020400040F004004B49683108600846006840F0E1
:10205000010008600CE047486830006820F001008B
:102060004449683108600846006820F004000860B0
:1020700000BFA068A8B1FFF763FC054609E0FFF7C1
:102080005FFC401B41F28831884202D9032077E689
:1020900026E0384868300068C0F340000028EED0E1
:1020A00013E0FFF74DFC054608E0FFF749FC401B35
:1020B00041F28831884201D9032061E62D48683019
:1020C0000068C0F340000028EFD1012F07D1294854
:1020D0003830006820F0805026493831086000BF51
:1020E000A069002845D02348006800F00C000828AB
:1020F0005DD0A069022845D100201F490866FFF77E
:102100001FFC054606E0FFF71BFC401B022801D917
:10211000032035E6174808380068C0F340600028FF
:10212000F1D1D4E907010843616A40EA8111012233
:10213000A06AC2EB500041EA00412C20005D41EA58
:1021400000600C49091F086001200B490866FFF771
:10215000F7FB054606E0FFF7F3FB401B022801D919
:1021600003200DE6034808380068C0F340600028EB
:10217000F1D03FE00838024000004742800E47425D
:102180000070004000201C490866FFF7D9FB054697
:1021900006E0FFF7D5FB401B022801D90320EFE53D
:1021A00016480068C0F340600028F2D122E0A06920
:1021B000012800D1E4E511480830066806F48001E2
:1021C000E069814214D106F03F01206A81420FD1BB
:1021D00047F6C0703040616A884209D106F4403148
:1021E000A06A814204D106F07061E06A814201D0A8
:1021F0000120C5E50020C3E5000047420038024049
:1022000070B504462546681EB0F1807F01D30120D9
:102210000FE0681E4FF0E02148610F214FF0FF30C2
:1022200001F086FA00204FF0E02188610720086164
:10223000002070BD70B50446002520684069C0F3D9
:10224000C01594F8390021280ED16DB1206840697D
:1022500020F0800021684861206B10B1206BFFF7EF
:1022600026F8204600F02AFF20684069C0F3801558
:1022700094F83A0022280ED16DB12068406920F010
:10228000400021684861606B10B1606BFFF70FF888
:10229000204600F0F3FE002070BD70472DE9F047A6
:1022A0000446206805682068C668206847694FF0C2
:1022B0000008C14605F00F08B8F1000F0AD105F07B
:1022C000200038B106F0200020B1204600F000FFC9
:1022D000BDE8F087B8F1000F72D007F0010018B91F
:1022E00006F4907000286BD005F0010030B106F4C0
:1022F000807018B1E06B40F00100E06305F004006D
:1023000030B107F0010018B1E06B40F00200E0636B
:1023100005F0020030B107F0010018B1E06B40F0A9
:102320000400E06305F0080048B106F0200010B991
:1023300007F0010018B1E06B40F00800E063E06BCB
:1023400070B305F0200028B106F0200010B120463F
:1023500000F0BEFE20684069C0F38019E06B00F019
:10236000080010B9B9F1000F23D0204600F086FE16
:102370002068406900F04000402816D1206840697C
:1023800020F0400021684861606B50B11748616BD4
:102390000865606BFEF7E0FF10B1606B016D884768
:1023A0000CE02046FFF779FF08E02046FFF775FFB5
:1023B00004E02046FFF771FF0020E06388E7FFE7B5
:1023C00005F0800030B106F0800018B1204601F021
:1023D000C7F87DE705F0400030B106F0400018B1C5
:1023E000204600F05BFE73E700BF71E7812F000815
:1023F00010B504460CB9012010BDA06900B100E081
:1024000000BF94F8390028B9002084F8380020462D
:1024100000F028F8242084F839002068C06820F4EF
:1024200000502168C860204600F0A6FE20680069C0
:1024300020F49040216808612068406920F02A005B
:10244000216848612068C06840F400502168C86075
:102450000020E063202084F8390084F83A0000204E
:10246000CAE7000010B586B00446142101A8FDF7A4
:10247000DFFE65492068884267D100BF00200090D8
:102480006248006840F01000604908600846006833
:1024900000F01000009000BF00BF00BF00200090BF
:1024A0005A481438006840F001005849143908604F
:1024B0000846006800F00100009000BF00BF48150A
:1024C0000190022002900020039003200490072036
:1024D000059001A94E48FFF733F94FF48060019051
:1024E0000220029001200390032004900720059011
:1024F00001A94748FFF724F94648474908604FF0CB
:1025000000604860002144488160C1604FF48061F0
:1025100001610021416181614FF48071C16100213D
:1025200001624162FFF74CF808B1FEF767F900BF9E
:1025300039486063846300BF002201212520FFF732
:1025400089FA2520FFF776FA5BE034492068884253
:1025500057D100BF002000902C48001F006840F4B5
:1025600000302A49091F08600846006800F400305E
:10257000009000BF00BF00BF002000902348143827
:10258000006840F0010021491439086008460068DD
:1025900000F00100009000BF00BF0C20019002205D
:1025A000029000200390032004900720059001A9C9
:1025B0001748FFF7C5F81A481A4908604FF000603D
:1025C00048604021174881600021C1604FF480615C
:1025D0000161002141618161C16101624162FEF7D7
:1025E000EFFF08B1FEF70AF900BF0E4820638463CD
:1025F00000BF002201212620FFF72CFA2620FFF73A
:1026000019FA06B010BD0000001001404438024025
:102610000000024040640240D80600200044004010
:10262000A06002403807002077B581B00446154607
:1026300094F83A00202850D1029800B115B9012031
:1026400004B070BD00BF94F83800012801D1022009
:10265000F6E7012084F8380000BF0298A062A58543
:102660000020E063222084F83A001D48616BC863B3
:102670001C48616B08641C48616BC8640020616B76
:10268000086502AE32682368191D2B46606BFFF7A0
:102690000DF800BF002000902068006800902068BE
:1026A0004068009000BF00BF00BF002084F83800E1
:1026B00000BF2068C06840F480702168C86020684E
:1026C000406940F00100216848612068406940F09D
:1026D0004000216848610020B2E70220B0E7000016
:1026E000E52F00082B300008952F00087047704731
:1026F000F7B50446154694F8390020283DD10198D5
:1027000000B10DB90120FEBD00BF94F838000128CA
:1027100001D10220F7E7012084F8380000BF0198BA
:102720002062A584E5840020E063212084F839003C
:102730001348216BC8631348216B08641248216B4E
:10274000C8640020216B086501AE23681A1D31683A
:102750002B46206BFEF7AAFF6FF04000216808604F
:1027600000BF002084F8380000BF2068406940F0B6
:102770008000216848610020C5E70220C3E700000F
:10278000393000086F300008952F000870477047F7
:1027900000BFFEE710B50D480D49086006204860EF
:1027A00000210B488160C1604FF4003101610901D3
:1027B00041610021017641768176C17601774177CA
:1027C000FEF79CFB08B1FEF719F810BD006400404D
:1027D0000806002010B50D480D4908600620486025
:1027E00000210B488160C1604FF400310161090193
:1027F00041610021017641768176C176017741778A
:10280000FEF77CFB08B1FDF7F9FF10BD0068004042
:102810003006002008B500BF002000901648006870
:1028200040F48000144908600846006800F4800005
:10283000009000BF00BF00BF002000900846006865
:1028400040F4001008600846006800F40010009092
:1028500000BF00BF002211461120FFF7FBF8112036
:10286000FFF7E8F8002211463A20FFF7F3F83A2084
:10287000FFF7E0F808BD00003038024008B500BF9F
:10288000002000901548006840F08000134908605F
:102890000846006800F08000009000BF00BF00BF45
:1028A000002000900846006840F0010008600846DB
:1028B000006800F00100009000BF00BF00BF0020D2
:1028C00000900846006840F0020008600846006872
:1028D00000F00200009000BF00BF08BD3038024089
:1028E00010B50B480B4908604FF4E13048600021F7
:1028F00008488160C16001610C2141610021816152
:10290000C161FFF775FD08B1FDF778FF10BD00004C
:10291000001001405806002010B50B480B49086014
:102920004FF4E1304860002108488160C1600161D6
:102930000C21416100218161C161FFF759FD08B19E
:10294000FDF75CFF10BD0000004400409806002029
:1029500000BFFEE7704770472DE9F04387B0074698
:102960000C4615461E464FF001084FF000090020A6
:1029700003900490019505963846FEF77DF900F026
:10298000FF0904E03846FEF777F900F0FF09B9F1D6
:10299000000FF7D00123224601A93846FDF771FF49
:1029A0008046B8F1000F03D0022007B0BDE8F083E5
:1029B0000020FAE770B505460E46012413E004F541
:1029C0000070A8420ED1601EC0EBC0000849084448
:1029D00031680160B1888180B1798171E0B200F025
:1029E00039F870BD641C092CE9DB00BFF9E7000071
:1029F0007004002010B5014600204A1EC2EBC2023E
:102A0000134B1A4492780123B3EBE21F11D14A1EF3
:102A1000C2EBC2020E4B1A44D3784A1EC2EBC2026A
:102A20000B4C2244927803EB0222A2F57F40FF3840
:102A30000DE04A1EC2EBC202054B1A44D3784A1E6F
:102A4000C2EBC202024C2244927803EB022010BD7A
:102A50007004002010B588B00146481EC0EBC002CB
:102A60001F4B1A445278C0EBC0031D4CE35C02EBD1
:102A700003224DF820205DF820201A4B53F8203017
:102A8000D21AB2F5805F09DB174A52F82020A2F56E
:102A9000F852FF3A144B43F8202011E05DF8202053
:102AA000104B53F82030D21A12F5805F08DC0E4A22
:102AB00052F8202041F6FF731A440B4B43F82020B4
:102AC0005DF82020074B43F82020074A52F82020C9
:102AD0005DF820301A44054B43F8202008B010BDA3
:102AE00070040020E8040020C8040020A80400208E
:102AF00070B505460C46012C3ADB082C38DC002664
:102B000000BF1C48854201DC054604E042F210701B
:102B1000854200DB0546042C0BDC4FF40076C5F340
:102B200007216000801E144A11546000401E155495
:102B30000CE040F2FF16201FC4B2C5F3072160006D
:102B4000801E0E4A11546000401E1554B6F5007FD9
:102B500006D1B2B2082308490948FFF7FDFE05E097
:102B6000B2B2082305490648FFF7F6FE002070BD03
:102B70000120FCE7F0D8FFFF08040020000400203B
:102B80000806002070B52DED068B06460D46681E22
:102B9000C4B200EE106AB8EEC00AA14800EB84107F
:102BA00080ED000AE8B2FFF725FF00EE100AB8EE4C
:102BB000C00A9B4800EB841080ED010A984800EBA6
:102BC000841090ED020A964800EB841080ED030A11
:102BD000934800EB841090ED000A914800EB8410BC
:102BE000D0ED010A30EE600A8D4800EB841080EDD4
:102BF000020A8B4800EB841090ED0E0A10EE101ABA
:102C00000846FDF7A3FB41EC180B854800EB841048
:102C100090ED020A10EE101A0846FDF797FB41EC02
:102C20001A0BB0EE4A0AF0EE6A0AFDF7E9FDB0EEC3
:102C3000409AF0EE609A53EC182B51EC190BFDF70B
:102C400099FB06D29FED770A754800EB841080ED62
:102C5000020A734800EB841090ED040A704800EB00
:102C60008410D0ED020A30EE200A6D4800EB84108B
:102C700080ED040A6A4800EB841090ED040A68486D
:102C800000EB8410D0ED0F0AB4EEE00AF1EE10FA7A
:102C900005DB634800EB841090ED0F0A1DE06048EF
:102CA00000EB841090ED040A5D4800EB8410D0ED39
:102CB0000F0AF1EE600AB4EEE00AF1EE10FA07D85E
:102CC000574800EB841090ED0F0AB1EE400A04E083
:102CD000534800EB841090ED040A514800EB841037
:102CE00080ED040A4E4800EB841090ED050A4C4834
:102CF00000EB8410D0ED020A20EE200A484800EBD9
:102D0000841080ED0A0A464800EB841090ED060A14
:102D1000434800EB8410D0ED040A20EE200A40481E
:102D200000EB841080ED0B0A3D4800EB841090ED21
:102D3000020A3B4800EB8410D0ED030A30EE600A33
:102D4000374800EB8410D0ED070A20EE200A344803
:102D500000EB841080ED0C0A314800EB841090EDFC
:102D60000A0A2F4800EB8410D0ED0B0A30EE200A3F
:102D70002B4800EB8410D0ED0C0A30EE200A2848D6
:102D800000EB841080ED0D0A254800EB8410D0ED97
:102D90000D0A234800EB841090ED080AB8EEC00A33
:102DA000F4EEC00AF1EE10FA07DB1D4800EB8410C8
:102DB00090ED080AB8EEC00A1DE0194800EB841037
:102DC000D0ED0D0A164800EB841090ED090AB8EE1C
:102DD000C00AF4EEC00AF1EE10FA07D8104800EB72
:102DE000841090ED090AB8EEC00A04E00C4800EB2C
:102DF000841090ED0D0A0A4800EB841080ED0D0A56
:102E0000E9B2074A02EB841292ED0D0ABDEEC00A48
:102E100010EE100AFFF76CFEBDEC068B70BD0000D3
:102E200000000020000000007047000010B52DEDEC
:102E3000048BB0EE408AF0EE608AB0EE419A1648FC
:102E4000006816490968084415490968401A154977
:102E500008601148006811490968401A104909685A
:102E60000844104988600C4800680C490968084407
:102E70000B49096808440B4908610748006807497D
:102E80000968401A06490968401A0649886100F035
:102E900029FCBDEC048B10BD580400205404002014
:102EA0005C0400203404002010B5FEF74FFD10BD77
:102EB00000B593B0302107A8FDF7BAF9142102A894
:102EC000FDF7B6F900BF002001902448006840F0EB
:102ED0008050224908600846006800F08050019048
:102EE00000BF00BF00BF002001901D48006840F4F3
:102EF00080401B4908600846006800F4804001904B
:102F000000BF00BF012007900004089002200D9030
:102F100041050E9119210F914FF4A87110910221D2
:102F200011910421129107A8FEF726FF08B1FDF7C1
:102F300065FC0F20029002200390002004904FF4C3
:102F4000A05005904FF480500690052102A8FEF78E
:102F5000D3FD08B1FDF752FC13B000BD403802406C
:102F6000007000400548006840F4700003490860A4
:102F70004FF00060014980390860704788ED00E03B
:102F800070B50546AC6B0020E085E0842046FFF775
:102F900084F970BD70B506460025B46B20684069A1
:102FA000C0F3C01594F83900212805D125B10020BF
:102FB000E084204600F082F820684069C0F3801564
:102FC00094F83A00222805D125B10020E08520465A
:102FD00000F054F8E06B40F01000E0632046FFF78B
:102FE0005CF970BD70B50546AC6B2868006800F4EC
:102FF0008070B0B90020E0852068C06820F480703F
:103000002168C8602068406920F00100216848619B
:103010002068406920F0400021684861202084F841
:103020003A002046FFF762FB70BD70B50446A56B01
:103030002846FFF75CFB70BD70B50546AC6B286891
:10304000006800F4807070B90020E0842068406956
:1030500020F08000216848612068C06840F040008E
:103060002168C86002E02046FFF790FB70BD70B594
:103070000446A56B2846FFF78AFB70BD0168C96846
:1030800021F490710268D1600168496921F0010161
:1030900002685161202180F83A10704710B504464B
:1030A0002068C06820F040002168C860202084F8B3
:1030B00039002046FFF76AFB002010BD0168C9688F
:1030C00021F0C0010268D160202180F839107047DA
:1030D00070B5044694F83A0022284AD1A068B0F5A9
:1030E000805F13D1A56A206940B920684068C0F3A9
:1030F00008002880A06A801CA06219E0206840684F
:10310000C0B22880A06A401CA06211E0206938B9D2
:1031100020684068C1B2A26A501CA062117007E02A
:103120002068406800F07F01A26A501CA062117004
:10313000E08D401E80B2E085C8B92068C06820F0EC
:1031400020002168C8602068C06820F48070216871
:10315000C8602068406920F0010021684861202093
:1031600084F83A002046FFF7C1FA002070BD002025
:10317000FCE70220FAE700002DE9F84F044620683A
:10318000006920F44050E168084321680861216922
:10319000A068084361690843E1690843009020681A
:1031A000C06849F20C618843009908432168C860EF
:1031B0002068406920F44070A16908432168486193
:1031C000E069B0F5004F75D1E3492068884203D02B
:1031D000E249206888426FD1FEF766FD81460220F1
:1031E0006168A0FB01510B461920A9FB00712A461A
:1031F0003846FCF7E5FF6421B0FBF1F04FEA001A16
:1032000002206168A0FB01510B461920A9FB007147
:103210002A463846FCF7D4FF074602206168A0FB27
:1032200001510B461920A9FB00B12A465846FCF76C
:10323000C7FF6421B0FBF1F000EBC00101EB00100F
:10324000A7EB8000322101EBC0006421B0FBF1F05C
:1032500000F0F8000AEB400A02206168A0FB01516F
:103260000B461920A9FB00712A463846FCF7A8FF37
:10327000074602206168A0FB01510B461920A9FBFB
:1032800000B12A465846FCF79BFF6421B0FBF1F0E1
:1032900000EBC00101EB0010A7EB8000322101EB35
:1032A000C0006421B0FBF1F000F007005044216839
:1032B00088604FE16EE0FFE7FEF7E6FC8146022002
:1032C0006168A0FB01510B461920A9FB00712A4639
:1032D0003846FCF775FF6421B0FBF1F04FEA001AA5
:1032E00002206168A0FB01510B461920A9FB007167
:1032F0002A463846FCF764FF074602206168A0FBB7
:1033000001510B461920A9FB00B12A465846FCF78B
:1033100057FF6421B0FBF1F000EBC00101EB00109E
:10332000A7EB8000322101EBC0006421B0FBF1F07B
:1033300000F0F8000AEB400A02206168A0FB01518E
:103340000B461920A9FB00712A463846FCF738FFC6
:10335000074602206168A0FB015003461920A9FB23
:1033600000B12A465846FCF72BFF6421B0FBF1F070
:1033700000EBC00101EB0010A7EB8000322101EB54
:10338000C0006421B0FBF1F000F007005044216858
:103390008860DFE070492068884203D06F49206868
:1033A00088426BD1FEF780FC814604206168A0FB57
:1033B00001510B461920A9FB00712A463846FCF73B
:1033C000FFFE824604206168A0FB01510B461920D4
:1033D000A9FB00712A463846FCF7F2FE6421B0FBD7
:1033E000F1F000EBC00101EB0010AAEB80003221EC
:1033F00001EB00106421B0FBF1F000F0F00A0420B2
:103400006168A0FB015003461920A9FB00712A4600
:103410003846FCF7D5FE6421B0FBF1F00AEB001A48
:1034200004206168A0FB01510B461920A9FB007123
:103430002A463846FCF7C4FE074604206168A0FB14
:10344000015003461920A9FB00B12A465846FCF753
:10345000B7FE6421B0FBF1F000EBC00101EB0010FE
:10346000A7EB8000322101EB00106421B0FBF1F0EA
:1034700000F00F005044216888606BE0FEF704FC08
:10348000814604206168A0FB015003461920A9FB76
:1034900000712A463846FCF793FE82460420616894
:1034A000A0FB015003461920A9FB00712A463846AB
:1034B000FCF786FE6421B0FBF1F000EBC00101EBEC
:1034C0000010AAEB8000322101EB00106421B0FB58
:1034D000F1F000F0F00A04206168A0FB01500346FF
:1034E0001920A9FB00712A463846FCF769FE6421C1
:1034F000B0FBF1F00AEB001A04206168A0FB017038
:1035000003461920A9FB005001463A462846FCF71D
:1035100057FE074604206168A0FB015003461920AE
:10352000A9FB00B12A465846FCF74AFE6421B0FBCD
:10353000F1F000EBC00101EB0010A7EB800032219D
:1035400001EB00106421B0FBF1F000F00F005044DB
:1035500021688860BDE8F88F001001400014014028
:10356000014691F8390021282CD18868B0F5805F98
:103570000FD10A6A1088C0F308000B685860086908
:1035800018B9086A801C086209E0086A401C0862D1
:1035900005E00B6A581C086218780B685860C88CE4
:1035A000401E80B2C88458B90868C06820F0800006
:1035B0000B68D8600868C06840F040000B68D860AD
:1035C000002070470220FCE710B50348FEF766FEB6
:1035D000014800F063F810BD5806002010B50248FD
:1035E000FEF75CFE10BD00009806002070B52DEDC2
:1035F000068B05462148FEF71DFE214800684068FD
:10360000C0F1FF00C4B200F0B7F81E480068FCF734
:103610008CFE41EC1A0B9FED1C0B53EC102BFCF7AE
:1036200012FE41EC190BFCF7D5FE08EE100A184803
:103630000068FCF77AFE41EC1A0B9FED130B53EC7C
:10364000102BFCF700FE41EC190BFCF7C3FE08EE53
:10365000900A104890ED000AB8EEC01AF0EE480A41
:10366000B0EE680AFFF7E2FB0024FF220A49034894
:10367000FEF7DAFFBDEC068B70BD00005806002097
:10368000D80600202804002000000000000034407C
:10369000240400202C0400200805002038B504462E
:1036A0000D4800680D49884215D10B480068006834
:1036B000C0F3001078B100BF0020009006480068F9
:1036C00000680090044800684068009000BF00BF98
:1036D0002046FFF78BFF38BD580600200010014040
:1036E00000BFFEE770B5012415E0601E45B20B482F
:1036F00000EBC500406830B1084850F83500404242
:10370000064941F83500054951F835002146FFF7D3
:1037100039FA601C44B2042CE7DD70BD340400208B
:1037200002480068C0F30220704700000CED00E082
:1037300010B5002804DB0A07130E054A135406E0EF
:103740000A07140E034A00F00F031B1FD45410BDC8
:1037500000E400E018ED00E002E008C8121F08C114
:10376000002AFAD170477047002001E001C1121F02
:10377000002AFBD170470000F0B500210023002291
:103780000124564800684068C0F1FF00C5B200201F
:103790009EE0534E365C782E08D139B901210026BF
:1037A000504F3E60504F3E6001248FE0012905D10B
:1037B0004B4E365C2D2E01D18C1E87E0012914D191
:1037C0009BB9474E365C392E0FDC454E365C302EA9
:1037D0000BDB434E365C303E424F3F6807EB8707BA
:1037E00006EB47063F4F3E6070E001290BD13C4E8F
:1037F000365C3B2E07D13B4E36686643394F3E6000
:103800000123012462E0012915D1012B13D1344E8B
:10381000365C392E0FDC324E365C302E0BDB304EF0
:10382000365C303E304F3F6807EB870706EB4706B4
:103830002D4F3E604AE02A4E365C782E07D12A4E44
:1038400036686643284F3E60002101243EE0244E46
:10385000365C792E06D12AB901220026234F3E601C
:10386000012433E0012A05D11D4E365C2D2E01D1F5
:10387000941E2BE0012A14D19BB9194E365C392EC7
:103880000FDC174E365C302E0BDB154E365C303EAF
:10389000164F3F6807EB870706EB4706134F3E605E
:1038A00014E0012A0BD10E4E365C3B2E07D10F4E91
:1038B000366866430D4F3E600123012406E0084E42
:1038C000365C792E02D1002201240023461CF0B27E
:1038D0006E1E8642BFF65DAFF0BD0000D806002028
:1038E0000805002024040020280400202C040020C7
:1038F000FEF738F8FFF7DCFAFEF7C0FFFEF78AFFA5
:10390000FEF748FFFEF7ECFFFFF706F8FEF762FF51
:103910001048FCF78FFE1048FCF78CFE0F4800683B
:10392000C06840F010000D490968C8600C48006884
:10393000C06840F010000A490968C860FF220949C0
:103940000648FEF771FE142207490548FEF7D0FE2F
:1039500000BFFEE7080600203006002058060020C1
:10396000980600200805002010040020000610160C
:103970000006101600000000000000000102030411
:10398000060708090000000001020304AC39000822
:10399000000000207004000098050008483A000864
:1039A00070040020280700006837000801178241D2
:1039B0001B803E040412C1FFFF1A20240B1C7A4412
:1039C000400B3A4041400D38CDCC4C3F400B40803D
:1039D0003FC0093E400B7C404180093440200FCD60
:1039E000CC4C3E6F12833A0AD7233CB0360B1250B0
:1039F000C94013C8420414409C46293881095840E4
:103A00003109154019C00E38400AD7A33B400B3D81
:103A1000CC3DC00E363E6F12833A80314A3FC00B18
:103A2000182041400B184843C04B4C4040091A80B5
:103A30000B12FA44400524C4E3BAC30A2901186AE8
:083A400010181324F40000002B
:040000050800018965
:00000001FF
