:020000040800F2
:10000000880E00209D010008212D0008072B000804
:100010001D2D000887030008BD3C000800000000FB
:10002000000000000000000000000000DD340008B7
:100030008305000800000000232D00085535000846
:10004000B7010008B7010008B7010008B7010008B0
:10005000B7010008B7010008B7010008B7010008A0
:10006000B7010008B7010008B7010008B701000890
:10007000B7010008B7010008B7010008B701000880
:1000800069040008B7010008B7010008B7010008BB
:100090008D030008B70100089D030008B7010008A0
:1000A000B7010008B7010008B7010008B701000850
:1000B000B7010008B7010008B7010008B701000840
:1000C000B7010008B7010008B7010008B701000830
:1000D000B7010008B7010008313C0008B70100086B
:1000E000B7010008B7010008B7010008B701000810
:1000F000B7010008B7010008B7010008B701000800
:10010000B7010008B7010008B7010008B7010008EF
:10011000B7010008B7010008B7010008B7010008DF
:10012000B7010008B7010008B7010008B7010008CF
:10013000B70100080000000000000000B70100083F
:10014000B7010008AD030008BD030008B7010008AF
:10015000B7010008B7010008B7010008B70100089F
:10016000B7010008B7010008B7010008B70100088F
:10017000B7010008B70100080000000000000000FF
:10018000B7010008B7010008DFF80CD000F0BEF896
:1001900000480047C9410008880E002006488047F3
:1001A00006480047FEE7FEE7FEE7FEE7FEE7FEE75C
:1001B000FEE7FEE7FEE7FEE71136000889010008CA
:1001C0002DE9F05F0546002092469B46884606468C
:1001D000814640241BE0284641464746224600F01F
:1001E00084F853465A46C01A914110D31146184616
:1001F000224600F06BF82D1A67EB01084F462246A5
:100200000120002100F062F817EB00094E41201E8A
:10021000A4F10104DFDC484631462A464346BDE8E6
:10022000F09FD2B201E000F8012B491EFBD27047CB
:100230000022F6E710B513460A4604461946FFF7B2
:10024000F0FF204610BD00F0004230F000400AD020
:10025000C10D01F56071C0F3160042EA0151C208F8
:1002600040071143704700200146704730B5041E17
:1002700071F1000404DB4FF00044404264EB0101E3
:10028000141E73F1000405DB1C464FF0004352427C
:1002900063EB04038B4208BF824230BD30B5041EBD
:1002A00071F1000404DB4FF00044404264EB0101B3
:1002B000141E73F1000405DB1C464FF0004352424C
:1002C00063EB0403994208BF904230BD202A04DB4F
:1002D000203A00FA02F1002070479140C2F1200359
:1002E00020FA03F3194390407047202A04DB203A98
:1002F00021FA02F00021704721FA02F3D040C2F146
:10030000200291400843194670470000064C074DF3
:1003100006E0E06840F0010394E8070098471034D5
:10032000AC42F6D3FFF734FF704300089043000857
:1003300070B58C1810F8015B15F0070301D110F8A7
:10034000013B2A1106D110F8012B03E010F8016BD4
:1003500001F8016B5B1EF9D12B0705D40023521E57
:100360000DD401F8013BFAE710F8013BCB1A921CBF
:1003700003E013F8015B01F8015B521EF9D5A142BD
:10038000D8D3002070BD00BFFEE7000010B50248C2
:1003900000F0B1FE10BD00009409002010B5024825
:1003A00000F0A9FE10BD00009409002010B502481D
:1003B00000F0A1FE10BD0000BC09002010B50248ED
:1003C00000F099FE10BD0000BC09002030B58BB0D4
:1003D000054623492868096888421AD100200690FA
:1003E0000790012008900020019002900390049053
:1003F0000590012009900A9001A9284600F010FDFF
:10040000284601F068F90221284600F049FC04461C
:1004100020E014492868096888421BD10F20069003
:100420000020079001200890002001900290039086
:1004300004900120059009900F200A9001A92846F8
:1004400000F0EEFC284601F046F91021284600F0A5
:1004500027FC04460CB100F095F80BB030BD00004D
:1004600094090020BC09002010B5024801F0D2F91F
:1004700010BD0000240A0020014608781038182317
:10048000B0FBF3F20848805CC865032A05D9086808
:100490006FF30900001D886503E008686FF3090029
:1004A0008865886D704700005043000801460020B1
:1004B0008A6A8B69CBB932B1012A0DD0022A03D0E6
:1004C000032A10D10EE000BFCB6A03F08073B3F1B2
:1004D000807F00D1012007E0CB6AB3F1C07F00D15B
:1004E000012001E000E000BF34E08B69B3F5005F5C
:1004F0001AD132B1012A07D0022A03D0032A11D11E
:100500000AE000BF01200EE0CB6A03F08073B3F174
:10051000807F00D1012006E0CB6AB3F1C07F00D11B
:10052000012000E000BF15E032B1012A05D0022A07
:1005300004D0032A0CD103E000BF00BF012008E073
:10054000CB6A03F08073B3F1807F00D1012000E01B
:1005500000BF00BF704730B50468246824F48024CD
:1005600005682C60046863608468402C04D10468CA
:10057000A2600468E16003E00468A1600468E260CE
:1005800030BD70477047000010B52DED028BB0EE06
:10059000408AF0EE608A9FED100B53EC102B51EC6B
:1005A000180BFFF77BFE00D20EE09FED0B0B53EC18
:1005B000102B51EC180BFFF759FE05D851EC180B16
:1005C00081F0004141EC180BB0EE480AF0EE680AE9
:1005D000BDEC028B10BD0000000000000000000018
:1005E00001464A1E084B9A5C520300EE902AF8EE30
:1005F000E00A60EE800A9FED051AC0EE811AFDEE5A
:10060000E10A10EE900A7047484300080000B44326
:100610002DE9F04387B007460C4615461E464FF0BD
:1006200001084FF000090020039004900195059601
:10063000384600F045FD00F0FF0904E0384600F0C0
:100640003FFD00F0FF09B9F1000FF7D0012322466A
:1006500001A9384600F039FB8046B8F1000F03D0FD
:10066000022007B0BDE8F0830020FAE770B5054628
:100670000E46012412E004F50170A8420DD1601E5F
:1006800000EB4000074901EB400031680160B18890
:100690008180E0B200F046F870BD641C092CEADBF2
:1006A00000BFF9E7040800200146481E014A52F83D
:1006B000200070473408002010B5014600204A1E73
:1006C00002EB4202164B03EB420292780123B3EB9A
:1006D000E21F13D14A1E02EB4202114B03EB42020E
:1006E000D3784A1E02EB42020D4C04EB4202927890
:1006F00003EB0222A2F57F40FF380FE04A1E02EB17
:100700004202074B03EB4202D3784A1E02EB42023D
:10071000034C04EB4202927803EB022010BD000070
:100720000408002010B588B00146481E00EB4002C6
:10073000204B03EB4202527800EB40031D4C14F8AF
:10074000133002EB03224DF820205DF820201A4BD5
:1007500053F82030D21AB2F5805F09DB174A52F8FD
:100760002020A2F5F852FF3A144B43F8202011E064
:100770005DF82020104B53F82030D21A12F5805F1C
:1007800008DC0E4A52F8202041F6FF731A440B4B46
:1007900043F820205DF82020074B43F82020074A2B
:1007A00052F820205DF820301A44054B43F82020F1
:1007B00008B010BD04080020740800205408002070
:1007C000340800202DE9F04106460D46284600EE8B
:1007D000106AB8EEC00AFFF703FF0746681EC4B2EE
:1007E00004EB4400824901EB0010006804EB440173
:1007F0007F4A02EB01114860E8B2FFF755FF381A53
:1008000004EB44017A4A02EB0111086004EB440056
:10081000114601EB0010806804EB440102EB01116A
:100820000968084404EB440102EB0111886004EB01
:100830004400114601EB0010806844F620618842B4
:1008400001DB084610E004EB4400694901EB0010AD
:1008500080686849884201DC084605E004EB4400F2
:10086000634901EB0010806804EB4401604A02EB2D
:100870000111886004EB4400114601EB0010D0ED3B
:10088000030A04EB440001EB001090ED000AB8EEFF
:10089000C00A20EE800A04EB440001EB001080ED5A
:1008A000080A04EB440001EB0010D0ED040A04EB4D
:1008B000440001EB001090ED020AB8EEC00A20EEF1
:1008C000800A04EB440001EB001080ED090A04EB00
:1008D000440001EB0010006804EB440102EB01113D
:1008E0004968401A00EE100AB8EEC00A04EB440052
:1008F000114601EB0010D0ED050A20EE200A04EBB2
:10090000440001EB001080ED0A0A04EB440001EB07
:10091000001090ED080A04EB440001EB0010D0ED4C
:10092000090A30EE200A04EB440001EB0010D0ED80
:100930000A0A30EE200A04EB440001EB001080EDBF
:100940000B0A04EB440001EB0010D0ED0B0A04EBA2
:10095000440001EB001090ED060AB8EEC00AF4EE78
:10096000C00AF1EE10FA08DB04EB440001EB0010C2
:1009700090ED060AB8EEC00A23E004EB44001C49DF
:1009800001EB0010D0ED0B0A04EB440001EB00106A
:1009900090ED070AB8EEC00AF4EEC00AF1EE10FAC4
:1009A00008D804EB440001EB001090ED070AB8EE04
:1009B000C00A06E004EB44000D4901EB001090ED85
:1009C0000B0A04EB44000A4901EB001080ED0B0A0E
:1009D00004EB4401064A02EB011191ED0B0ABDEE56
:1009E000C00A10EE100A294600F006F8BDE8F081B2
:1009F000B8050020E0B1FFFF70B506460D46681E41
:100A0000C4B204EB4400894901EB0010006804EB18
:100A10004401864A02EB01114860E8B2FFF74CFE40
:100A2000301A04EB4401814A02EB0111086004EB27
:100A30004400114601EB0010806804EB440102EB16
:100A400001110968084404EB440102EB01118860BC
:100A500004EB4400114601EB0010806842F2107173
:100A6000884201DB084610E004EB44006F4901EBCB
:100A7000001080686E49884201DC084605E004EBFE
:100A800044006A4901EB0010806804EB4401674AA6
:100A900002EB0111886004EB4400114601EB0010E9
:100AA000D0ED030A04EB440001EB001090ED000AC6
:100AB000B8EEC00A20EE800A04EB440001EB0010FF
:100AC00080ED080A04EB440001EB0010D0ED040AAD
:100AD00004EB440001EB001090ED020AB8EEC00AEE
:100AE00020EE800A04EB440001EB001080ED090ABF
:100AF00004EB440001EB0010006804EB440102EB3E
:100B000001114968401A00EE100AB8EEC00A04EB61
:100B10004400114601EB0010D0ED050A20EE200A3A
:100B200004EB440001EB001080ED0A0A04EB4400E2
:100B300001EB001090ED080A04EB440001EB0010FB
:100B4000D0ED090A30EE200A04EB440001EB00105E
:100B5000D0ED0A0A30EE200A04EB440001EB00104D
:100B600080ED0B0A04EB440001EB0010D0ED0B0A02
:100B700004EB440001EB001090ED060AB8EEC00A49
:100B8000F4EEC00AF1EE10FA08DB04EB440001EBCE
:100B9000001090ED060AB8EEC00A23E004EB440012
:100BA000224901EB0010D0ED0B0A04EB440001EBED
:100BB000001090ED070AB8EEC00AF4EEC00AF1EE9C
:100BC00010FA08D804EB440001EB001090ED070A7E
:100BD000B8EEC00A06E004EB4400144901EB001033
:100BE00090ED0B0A04EB4400104901EB001080ED7E
:100BF0000B0A04EB440001EB001090ED0B0AB5EE7C
:100C0000C00AF1EE10FA00DB00E000BFE9B204EB2D
:100C10004402064B03EB021292ED0B0ABDEEC00A32
:100C200010EE100A00F006F870BD00003804002035
:100C3000F0D8FFFF70B505460C46012C27DB082CC9
:100C400025DC002600BF1348854201DC054604E090
:100C500047F23050854200DB0546042C02DC40F2AE
:100C6000FF1603E040F2FF26201FC4B2C5F30721A0
:100C70006000801E084A11546000401E1554B2B234
:100C8000082305490548FFF7C3FC002070BD01207B
:100C9000FCE70000D08AFFFF38070020BC090020D5
:100CA00010B5024692F82030012B01D0022B06D15C
:100CB00010684069084314686061002010BD506AE4
:100CC00040F4802050620120F8E7F0B504460D465C
:100CD0001E4694F8207020688368A86800B900E078
:100CE00000BF012F01D0022F7CD103F0806030B90A
:100CF00003F0006018B903F08050002873D0C3F3EC
:100D00000161022905D9606A40F400006062012097
:100D1000F0BD012088403060A86860B9B5F800C017
:100D2000E86840EA4C5C206800F5C07000EB0110F8
:100D3000C0F800C00FE0D5E901C040EACC00D5F80A
:100D40000CC040EA0C00D4F800C00CF5C07C0CEBE1
:100D5000011CCCF80000D5F810C0206800F5C07068
:100D600000EB0110C0F804C0287D01280ED12068D6
:100D700000F5C07000EB0110406840F4807C2068F2
:100D800000F5C07000EB0110C0F804C0D079000677
:100D900092F806C040EA0C4092F805C040EA0C2CDC
:100DA00010794CEA000C206800F5C07000EB0110CF
:100DB000C0F80CC0D078000692F802C040EA0C409F
:100DC00092F801C040EA0C2092F800C040EA0C0002
:100DD000D4F800C00CF5C07C0CEB011CCCF808006A
:100DE000206801E016E00FE000F5C07000EB011094
:100DF000006840F0010C206800F5C07000EB0110A5
:100E0000C0F800C0002083E7606A40F40010606210
:100E100001207DE7606A40F480206062012077E76E
:100E2000F0B504460A46216894F82050012D01D0FF
:100E3000022D7ED1424901F50071086840F00100A1
:100E40000860086820F47C5008600868566A40EA28
:100E500006200860107D00F01F06012000FA06F34E
:100E6000C8699843C861A1F50071D069C8B9D1F8C3
:100E70000C029843C1F80C02908880B2968940EA2F
:100E8000064601F51070576940F83760108880B247
:100E9000168940EA064601F51070576900EBC70055
:100EA0004660D069012819D1D1F80C021843C1F865
:100EB0000C02908880B2168840EA064601F5107050
:100EC000576940F83760908980B2168940EA064633
:100ED00001F51070576900EBC7004660906928B9AA
:100EE000D1F804029843C1F8040204E0D1F80402E6
:100EF0001843C1F80402106928B9D1F814029843C4
:100F0000C1F8140204E0D1F814021843C1F8140225
:100F1000106A012804D1D1F81C021843C1F81C0240
:100F2000D1F8000220F00100C1F800020020F0BD5D
:100F3000FFE7606A40F4802060620120F7E700006C
:100F400000640040704770B5044694F82050012DAD
:100F500001D0022D7DD151B92068C06800F0030096
:100F600080B9606A40F400106062012070BD2068A2
:100F7000006900F0030028B9606A40F40010606264
:100F80000120F3E7206800F5D87000EB011000683D
:100F900000F004009060906840B9206800F5D870B7
:100FA00000EB01100068400D106007E0206800F5BC
:100FB000D87000EB01100068C0085060206800F590
:100FC000D87000EB0110006800F00200D0602068CB
:100FD00000F5D87000EB0110406800F00F001061C0
:100FE000206800F5D87000EB0110406800F47F40E5
:100FF000000A9061206800F5D87000EB011040688D
:10100000000C5061206800F5D87000EB011080687A
:101010001870206800F5D87000EB0110806800F4AB
:101020007F40000A5870206800F5D87000EB01106E
:10103000806800F47F00000C9870206800F5D8707C
:1010400000EB01108068000ED870206800F5D870A1
:1010500000E02FE000EB0110C0681871206800F577
:10106000D87000EB0110C06800F47F40000A58718E
:10107000206800F5D87000EB0110C06800F47F0014
:10108000000C9871206800F5D87000EB0110C06862
:10109000000ED87131B92068C06840F02000266881
:1010A000F06005E02068006940F0200026683061AB
:1010B00000205BE7606A40F480206062012055E711
:1010C0000146002091F82020012A01D0022A11D1E6
:1010D0000B689B6803F0806303B1401C0B689B683E
:1010E00003F0006303B1401C0B689B6803F080535E
:1010F00003B1401C70472DE9F05F044600252068CD
:1011000046692068D0F80490206887682068D0F885
:101110000CA02068D0F810B02068D0F8188006F035
:101120000100002855D007F00100C0B1012021685E
:10113000886007F0020018B1204600F0FCFA0EE0CB
:1011400007F0040010B145F4006508E007F008005E
:1011500010B145F4805502E0204600F0EBFA07F4A8
:101160008070C8B14FF480702168886007F4007007
:1011700018B1204600F0E1FA0EE007F4806010B1EB
:1011800045F4005508E007F4006010B145F48045CF
:1011900002E0204600F0D0FA07F48030C8B14FF4E6
:1011A00080302168886007F4003018B1204600F0D4
:1011B000C6FA0EE007F4802010B145F4004508E0BF
:1011C00007F4002010B145F4803502E0204600F01D
:1011D000B5FA06F0080038B10AF0100020B145F465
:1011E000007510202168C86006F0040040B10AF0C4
:1011F000080028B108202168C860204600F01EFAC7
:1012000006F0020038B12068C06800F0030010B199
:10121000204600F015FA06F0400038B10BF010003F
:1012200020B145F4806510202168086106F0200097
:1012300040B10BF0080028B1082021680861204661
:1012400000F022FA06F0100038B12068006900F0C2
:10125000030010B1204600F019FA06F4003040B146
:1012600009F0100028B1102021684860204600F0E5
:1012700031FA06F4803040B109F0080028B10820A6
:1012800021684860204600F05BFA06F4004088B30D
:1012900009F0040078B306F4807020B108F0010072
:1012A00008B145F0010506F4007020B108F0020015
:1012B00008B145F0020506F4806020B108F0040092
:1012C00008B145F0040506F40060A0B108F0700014
:1012D00088B108F07000402817D006DC10280BD029
:1012E00020280CD0302819D10CE0502810D06028CC
:1012F00014D110E01DE019E045F008050FE045F0BD
:1013000010050CE045F0200509E045F0400506E039
:1013100045F0800503E045F4807500E000BF00BFA4
:101320002068806920F070002168886104202168AD
:1013300048602DB1606A284360622046FFF702FED4
:10134000BDE8F09F70B504460CB9012070BD94F85B
:10135000200010B9204600F0AFF82068006820F0A7
:1013600002002168086000F059FD05460DE000F01C
:1013700055FD401B0A2808D9606A40F400306062BD
:10138000052084F820000120E0E72068406800F094
:1013900002000028EBD12068006840F001002168BD
:1013A000086000F03BFD05460DE000F037FD401BF6
:1013B0000A2808D9606A40F400306062052084F889
:1013C00020000120C2E72068406800F001000028EA
:1013D000EBD0207E012806D12068006840F0800014
:1013E0002168086005E02068006820F0800021681E
:1013F0000860607E012806D12068006840F0400047
:101400002168086005E02068006820F0400021683D
:101410000860A07E012806D12068006840F0200006
:101420002168086005E02068006820F0200021683D
:101430000860E07E012806D12068006820F01000D6
:101440002168086005E02068006840F0100021680D
:101450000860207F012806D12068006840F008005D
:101460002168086005E02068006820F00800216815
:101470000860607F012806D12068006840F0040001
:101480002168086005E02068006820F004002168F9
:101490000860D4E9020108432169084361690843EF
:1014A0006168491E08432168C8610020606201200C
:1014B00084F82000002049E710B586B004461421C6
:1014C00001A8FEF7B5FE5749206888424AD1564820
:1014D0000068401C544908600846006801280FD184
:1014E00000BF002000905148006840F000704F4954
:1014F00008600846006800F00070009000BF00BF60
:1015000000BF0020009049481038006840F00100FA
:101510004649103908600846006800F00100009054
:1015200000BF00BF4FF4C050019002200290002085
:101530000390032004900920059001A93C4800F085
:101540005DFB00221146142000F0F2FC142000F094
:10155000DFFC00221146162000F0EAFC162000F005
:10156000D7FC5DE033492068884259D100BF002094
:1015700000902E48006840F080602C4908600846C2
:10158000006800F08060009000BF00BF264800683F
:10159000401C254908600846006801280FD100BF9B
:1015A000002000902148006840F000701F4908604A
:1015B0000846006800F00070009000BF00BF00BF48
:1015C0000020009019481038006840F002001749C8
:1015D000103908600846006800F00200009000BF63
:1015E00000BF4FF440500190022002900020039071
:1015F000032004900920059001A90F4800F0FEFA8D
:1016000000221146412000F093FC412000F080FCB4
:1016100000221146422000F08BFC422000F078FCB2
:1016200006B010BD0064004058070020403802405A
:1016300000000240006800400004024070470000C3
:1016400010B58AB004460F4920680968884216D14F
:1016500000200190029001AB03AA00210948FFF786
:1016600072FC0398B0F5007F08D940F20521039879
:10167000884203D801A9039801F09AFB00BF0AB081
:1016800010BD0000940900207047000010B58AB01A
:1016900004460F4920680968884216D1002001904D
:1016A000029001AB03AA01210948FFF74CFC40F26C
:1016B00006210398884207D30398B0F5037F03D22D
:1016C00001A90398FEF7D2FF00BF0AB010BD0000C9
:1016D000BC090020704770B5044694F8200001282A
:1016E00022D1022084F820002068006820F0010048
:1016F0002168086000F092FB05460DE000F08EFBCB
:10170000401B0A2808D9606A40F400306062052056
:1017100084F82000012070BD2068406800F00100BE
:101720000028EBD16062F6E7606A40F40020606256
:101730000120F0E770477047704770477047704767
:10174000704770B50446A56D00F068FB064694F836
:101750003500022808D08020606500BF002084F892
:10176000340000BF012070BD2068006820F0160022
:10177000216808602068406920F080002168486185
:10178000206C08B9A06C28B12068006820F008001F
:10179000216808602068006820F001002168086066
:1017A0000FE000F03BFB801B05280AD92020606574
:1017B00000BF002084F8340000BF032084F8350007
:1017C000D1E72068006800F001000028E9D194F812
:1017D0005C103F208840A86000BF002084F83400DF
:1017E00000BF012084F835000020BCE7014691F8D5
:1017F0003500022803D0802048650120704705206D
:1018000081F835000868006820F001000A6810605F
:101810000020F3E7F8B50446002000908C480068EB
:101820004FF41651B0FBF1F7A56D2E6894F85C10DB
:1018300008208840304098B12068006800F004001B
:1018400070B12068006820F004002168086094F8F6
:101850005C1008208840A860606D40F00100606561
:1018600094F85C1001208840304068B120684069DD
:1018700000F0800040B194F85C1001208840A8601E
:10188000606D40F00200606594F85C1004208840B0
:10189000304068B12068006800F0020040B194F860
:1018A0005C1004208840A860606D40F00400606512
:1018B00094F85C1010208840304078B320680068AD
:1018C00000F0080050B394F85C1010208840A86025
:1018D0002068006800F4802080B12068006800F46F
:1018E000002028B9206CC8B12046216C884715E03B
:1018F000A06C98B12046A16C88470FE02068006872
:1019000000F4807028B92068006820F00800216881
:101910000860206C10B12046216C884794F85C1058
:10192000202088403040002865D02068006800F002
:10193000100000285FD094F85C1020208840A86038
:1019400094F83500052828D12068006820F016009A
:10195000216808602068406920F0800021684861A3
:10196000206C08B9A06C28B12068006820F008003D
:101970002168086094F85C103F208840A86000BF90
:10198000002084F8340000BF012084F83500206D69
:1019900010B12046216D8847F8BD2068006800F42A
:1019A000802080B12068006800F4002028B9606CB5
:1019B00010B12046616C88471DE0E06BD8B120462D
:1019C000E16B884717E02068006800F4807068B910
:1019D0002068006820F010002168086000BF002027
:1019E00084F8340000BF012084F83500E06B10B1AA
:1019F0002046E16B8847606D38B3606D00F00100F0
:101A0000F0B1052084F835002068006820F001005E
:101A10002168086000BF0098401C0090B84200D9BF
:101A200005E02068006800F001000028F3D100BF45
:101A300000BF002084F8340000BF012084F8350086
:101A4000E06C10B12046E16C884700BFA4E70000BD
:101A5000680700202DE9F0410446002500F0DEF97A
:101A6000074614B90120BDE8F081606A00B100BFEB
:101A700000BF002084F8340000BF022084F8350045
:101A80002068006820F00100216808600AE000F08A
:101A9000C5F9C01B052805D920206065032084F8FE
:101AA0003500E0E72068006800F001000028EED172
:101AB0002068056821480540D4E901010843E16830
:101AC00008432169084361690843A1690843E16942
:101AD0000843216A08430543606A042803D1D4E916
:101AE0000B0108430543206805602068456925F01F
:101AF0000705606A0543606A04280DD1A06A0543A2
:101B0000E06A48B12046FEF7D1FC28B1402060656C
:101B1000012084F83500A6E7206845612046FEF7DD
:101B2000ABFC064694F85C103F208840B060002073
:101B30006065012084F83500002094E73F8010F0B4
:101B40002DE9F04704460D4616461F464FF00008A3
:101B5000D4F8589000BF94F83400012802D1022034
:101B6000BDE8F087012084F8340000BF94F8350008
:101B7000012825D1022084F83500002060653B460D
:101B8000324629462046FEF7E6FC94F85C103F20DA
:101B90008840C9F808002068006840F016002168F5
:101BA0000860206C28B12068006840F008002168B7
:101BB00008602068006840F001002168086006E0C5
:101BC00000BF002084F8340000BF4FF002084046F8
:101BD000C6E7000070B5044600F020F90646254629
:101BE000681C10B104480078054400BF00F016F9E5
:101BF000801BA842FAD370BD64070020F8B50246E6
:101C00000B460025002400200021DCE0012606FA16
:101C100001F51E6806EA0504AC4273D15E68012E28
:101C200008D05E68022E05D05E68112E02D05E6874
:101C3000122E13D190684F000326BE40B0434F00D0
:101C4000DE68BE4030439060506801268E40B0434D
:101C50001E79C6F300168E4030435060D0684F00A6
:101C60000326BE40B0434F009E68BE403043D06064
:101C70005E68022E02D05E68122E13D1CF0802F1E8
:101C8000200656F827004E07F70E0F26BE40B04339
:101C90004F07FF0E1E69BE403043CF0802F12006F9
:101CA00046F8270010684F000326BE40B0431E7957
:101CB00006F003064F00BE40304310605E6806F039
:101CC0008056B6F1805F7DD100BF00260096404E61
:101CD000366846F480463E4F3E603E46366806F41F
:101CE0008046009600BF00BF3A4E8F0856F8270086
:101CF0008E07370F0F26BE40B043374EB24202D197
:101D0000002624E05EE0354EB24201D101261EE0FD
:101D1000334EB24201D1022619E0324EB24201D115
:101D2000032614E0304EB24201D104260FE02F4EBC
:101D3000B24201D105260AE02D4EB24201D106265B
:101D400005E02C4EB24201D1072600E008268F079D
:101D50003F0FBE4030431F4E8F0846F82700264EE7
:101D60003068A0435E6806F48036B6F5803F00D147
:101D70002043214E3060361D3068A0435E6806F473
:101D80000036B6F5003F00D120431B4E361D3060B3
:101D9000361D3068A0435E6806F48016B6F5801FD5
:101DA00000D12043144E08363060361D3068A04301
:101DB0005E6806F40016B6F5001F00D120430E4EF3
:101DC0000C363060491C1029FFF420AFF8BD00002C
:101DD000443802400838014000000240000402403C
:101DE00000080240000C02400010024000140240B3
:101DF00000180240001C0240003C014042690A40B9
:101E00008A4202D10A04826100E0816170470AB10E
:101E1000816101E00B0483617047000001480068A4
:101E2000704700005C0700200348006803490978F8
:101E300008440149086070475C07002064070020DF
:101E400010B50D48006840F400700B490860084662
:101E5000006840F4806008600846006840F48070C4
:101E60000860032000F0A2F8002000F007F800F05E
:101E70002BF8002010BD0000003C024070B5044665
:101E80000E4800784FF47A71B1FBF0F00C49096804
:101E9000B1FBF0F5284600F021FC08B1012070BD2F
:101EA000102C07D200222146501E00F041F80548B0
:101EB000046001E00120F2E70020F0E76407002061
:101EC000680700206007002008B500BF00200090D0
:101ED0000E48006840F480400C49086008460068DD
:101EE00000F48040009000BF00BF00BF00200090C1
:101EF000081F006840F08050091F0860084600680D
:101F000000F08050009000BF00BF08BD4438024080
:101F100001460846002809DB00F01F0301229A4011
:101F200043099B0003F1E023C3F8002100BF704781
:101F30002DE9F05F80460D461646002701F0DEFED3
:101F4000074639462A46334601F00700C0F1070A22
:101F5000BAF1040F02D94FF0040A01E0C0F1070AF8
:101F6000D14600F1040ABAF1070F02D24FF0000A7D
:101F700001E0A0F1030AD4464FF0010A0AFA09FA77
:101F8000AAF1010A0AEA020A0AFA0CFA4FF0010B56
:101F90000BFA0CFBABF1010B0BEA030B4AEA0B0447
:101FA0002146404601F0B2FEBDE8F09F00BF00F0C0
:101FB0000702064B19684FF6FF031940044B0B4309
:101FC00043EA0221014B196000BF70470CED00E0AD
:101FD0000000FA0570B504460D460CB9012070BD2D
:101FE0005848006800F00F00A84209D255490D700A
:101FF0000846006800F00F00A84201D00120EEE77B
:10200000207800F0020002281DD1207800F00400A2
:10201000042805D14C48006840F4E0504A49086063
:10202000207800F00800082805D14748006840F4EF
:102030006040454908604448006820F0F000A1680D
:10204000084341490860207800F00100A8B36068A7
:10205000012807D13C4808380068C0F34040B8B9AF
:102060000120BCE76068022802D06068032807D11D
:10207000354808380068C0F3406048B90120AEE731
:10208000314808380068C0F3400008B90120A6E7CD
:102090002D48006820F00300616808432A49086061
:1020A000FFF7BCFE064609E0FFF7B8FE801B41F2D1
:1020B0008831884202D9032091E707E0224800686E
:1020C00000F00C006168B0EB810FEDD11D48006895
:1020D00000F00F00A84209D91A490D70084600689F
:1020E00000F00F00A84201D0012078E7207800F02E
:1020F0000400042807D11448006820F4E050E16887
:10210000084311490860207800F00800082808D129
:102110000D48006820F46040216940EAC1000A4986
:10212000086000F03FF808490968C1F30311074A45
:10213000515CC8400649086006480068FFF79EFEEB
:1021400000204CE7003C0240083802405843000899
:102150006807002060070020014800687047000001
:102160006807002000B5FFF7F7FF04490968C1F3CD
:102170008221034A515CC84000BD0000083802407B
:102180006843000800B5FFF7E7FF04490968C1F399
:102190004231034A515CC84000BD0000083802408B
:1021A000684300082DE9F047002400250026A146D9
:1021B0002548006800F00C0020B1042805D008284C
:1021C0003AD105E0DFF8849039E0DFF8849036E01A
:1021D0001D48001F006800F03F041B48001F0068F6
:1021E00000F4800078B11A481749091F0968C1F343
:1021F0008811A0FB01700146224600233846FDF7F6
:10220000DFFF05460EE011480F49091F0968C1F3B9
:102210008811A0FB01700146224600233846FDF7D5
:10222000CFFF05460848001F0068C0F30140401C6E
:102230004600B5FBF6F902E0DFF8109000BF00BFE2
:102240004846BDE8F0870000083802400024F4004A
:1022500040787D01F8B504460CB90120F8BD20781E
:1022600000F00100002874D0F948006800F00C006C
:1022700004280DD0F648006800F00C00082813D19F
:10228000F348001F006800F48000B0F5800F0BD108
:10229000EF4808380068C0F34040002859D0606813
:1022A000002856D10120D9E700BF6068B0F5803F13
:1022B00008D1E7480838006840F48030E44908391C
:1022C00008601EE06068B0F5A02F0DD1E048083826
:1022D000006840F48020DE4908390860084600683C
:1022E00040F4803008600CE0D9480838006820F4D9
:1022F0008030D749083908600846006820F48020FB
:10230000086000BF606890B1FFF788FD054606E0F1
:10231000FFF784FD401B642801D903209EE7CC48C9
:1023200008380068C0F340400028F1D011E0FFF702
:1023300075FD054606E0FFF771FD401B642801D9D5
:1023400003208BE7C24808380068C0F340400028EB
:10235000F1D1207800F0020002285FD1BC4800686B
:1023600000F00C0058B1BA48006800F00C000828D2
:102370001CD1B748001F006800F48000B0B9B44811
:1023800008380068C0F3400020B1E068012801D09F
:10239000012063E7AE480838006820F0F8002169A2
:1023A00040EAC100AA490839086037E0E06800B394
:1023B0000120A8490860FFF731FD054606E0FFF758
:1023C0002DFD401B022801D9032047E7A04808380B
:1023D0000068C0F340000028F1D09D48083800682C
:1023E00020F0F800216940EAC100994908390860E5
:1023F00014E0002097490860FFF710FD054606E04D
:10240000FFF70CFD401B022801D9032026E7904866
:1024100008380068C0F340000028F1D1207800F0AF
:10242000080008282CD16069A8B101208A490860F9
:10243000FFF7F4FC054606E0FFF7F0FC401B02281E
:1024400001D903200AE782486C300068C0F34000DD
:102450000028F1D014E000207F490860FFF7DEFC7F
:10246000054606E0FFF7DAFC401B022801D90320ED
:10247000F4E677486C300068C0F340000028F1D1E2
:10248000207800F00400042870D10027704838300C
:10249000006800F0805090B900BF002000906C48A8
:1024A0003830006840F0805069493831086008468B
:1024B000006800F08050009000BF00BF012767480F
:1024C000006800F48070B0B96448006840F480701F
:1024D00062490860FFF7A2FC054606E0FFF79EFC94
:1024E000401B022801D90320B8E65C48006800F4CC
:1024F00080700028F2D000BFA068012808D154489D
:102500006830006840F001005149683108601DE002
:10251000A06805280DD14E486830006840F00400DE
:102520004B49683108600846006840F001000860C7
:102530000CE047486830006820F0010044496831E9
:1025400008600846006820F00400086000BFA0682A
:10255000A8B1FFF763FC054609E0FFF75FFC401BED
:1025600041F28831884202D9032077E626E03848D4
:1025700068300068C0F340000028EED013E0FFF799
:102580004DFC054608E0FFF749FC401B41F288314D
:10259000884201D9032061E62D4868300068C0F305
:1025A00040000028EFD1012F07D1294838300068BA
:1025B00020F0805026493831086000BFA06900280B
:1025C00045D02348006800F00C0008285DD0A069C1
:1025D000022845D100201F490866FFF71FFC054669
:1025E00006E0FFF71BFC401B022801D9032035E65B
:1025F000174808380068C0F340600028F1D1D4E9DA
:1026000007010843616A40EA81110122A06AC2EB16
:10261000500041EA00412C20005D41EA00600C4975
:10262000091F086001200B490866FFF7F7FB054604
:1026300006E0FFF7F3FB401B022801D903200DE65B
:10264000034808380068C0F340600028F1D03FE03C
:102650000838024000004742800E474200700040A8
:1026600000201C490866FFF7D9FB054606E0FFF786
:10267000D5FB401B022801D90320EFE5164800686E
:10268000C0F340600028F2D122E0A069012800D107
:10269000E4E511480830066806F48001E0698142EB
:1026A00014D106F03F01206A81420FD147F6C07075
:1026B0003040616A884209D106F44031A06A814203
:1026C00004D106F07061E06A814201D00120C5E5C5
:1026D0000020C3E5000047420038024070B50446C0
:1026E0002546681EB0F1807F01D301200FE0681EEF
:1026F0004FF0E02148610F214FF0FF3001F006FB61
:1027000000204FF0E021886107200861002070BDA3
:1027100070B50446002520684069C0F3C01594F8E0
:10272000390021280ED16DB12068406920F0800069
:1027300021684861206B10B1206BFFF702F820463A
:1027400000F0F0FF20684069C0F3801594F83A006B
:1027500022280ED16DB12068406920F04000216828
:102760004861606B10B1606BFEF7EBFF204600F034
:10277000B9FF002070BD70472DE9F047044620687E
:1027800005682068C668206847694FF00008C146A0
:1027900005F00F08B8F1000F0AD105F0200038B19C
:1027A00006F0200020B1204600F0C6FFBDE8F0870B
:1027B000B8F1000F72D007F0010018B906F490705C
:1027C00000286BD005F0010030B106F4807018B11C
:1027D000E06B40F00100E06305F0040030B107F069
:1027E000010018B1E06B40F00200E06305F0020068
:1027F00030B107F0010018B1E06B40F00400E06375
:1028000005F0080048B106F0200010B907F00100FB
:1028100018B1E06B40F00800E063E06B70B305F0C6
:10282000200028B106F0200010B1204600F084FFFF
:1028300020684069C0F38019E06B00F0080010B90F
:10284000B9F1000F23D0204600F04CFF206840690A
:1028500000F04000402816D12068406920F0400078
:1028600021684861606B50B11748616B0865606B07
:10287000FEF7BCFF10B1606B016D88470CE020468D
:10288000FFF779FF08E02046FFF775FF04E02046D8
:10289000FFF771FF0020E06388E7FFE705F08000A5
:1028A00030B106F0800018B1204601F08DF97DE7C7
:1028B00005F0400030B106F0400018B1204600F0AD
:1028C00021FF73E700BF71E72D36000810B50446FD
:1028D0000CB9012010BDA06900B100E000BF94F860
:1028E000390028B9002084F83800204600F028F884
:1028F000242084F839002068C06820F40050216842
:10290000C860204600F06CFF2068006920F4904009
:10291000216808612068406920F02A002168486128
:102920002068C06840F400502168C8600020E0635F
:10293000202084F8390084F83A000020CAE700001B
:1029400010B586B00446142101A8FDF771FC364984
:102950002068884265D100BF00200090334800689D
:1029600040F40030314908600846006800F4003047
:10297000009000BF00BF00BF002000902B4810381F
:10298000006840F0010029491039086008460068D5
:1029900000F00100009000BF00BF04200190022061
:1029A000029000200390032004900720059001A9C5
:1029B0001F48FFF723F90820019002200290012010
:1029C0000390032004900720059001A91848FFF701
:1029D00015F91848184908604FF000604860002158
:1029E00015488160C1604FF480610161002141613F
:1029F00081614FF48071C161002101624162FFF782
:102A000029F808B1FDF7BEFD00BF0B486063846381
:102A100000BF002211462620FFF78AFA2620FFF782
:102A200077FA06B010BD0000004400404038024074
:102A30000000024088600240240A002077B581B07F
:102A40000446154694F83A00202850D1029800B167
:102A500015B9012004B070BD00BF94F838000128FA
:102A600001D10220F6E7012084F8380000BF029867
:102A7000A062A5850020E063222084F83A001D486A
:102A8000616BC8631C48616B08641C48616BC86457
:102A90000020616B086502AE32682368191D2B4661
:102AA000606BFFF74DF800BF0020009020680068C1
:102AB000009020684068009000BF00BF00BF002069
:102AC00084F8380000BF2068C06840F48070216836
:102AD000C8602068406940F00100216848612068B2
:102AE000406940F04000216848610020B2E70220C0
:102AF000B0E7000091360008D736000841360008DC
:102B000070477047704700BFFEE7000010B50D48E2
:102B10000D4908600620486000210B488160C160B3
:102B20004FF40031016109014161002101764176D4
:102B30008176C17601774177FEF704FC08B1FDF795
:102B400021FD10BD006400409409002010B50D481F
:102B50000D4908600620486000210B488160C16073
:102B60004FF4003101610901416100210176417694
:102B70008176C17601774177FEF7E4FB08B1FDF776
:102B800001FD10BD00680040BC09002008B500BF71
:102B9000002000900A48006840F4001008490860CE
:102BA0000846006800F40010009000BF00BF00223B
:102BB00011461020FFF7BCF91020FFF7A9F908BD56
:102BC0003038024000B587B0142102A8FDF730FB71
:102BD00000BF002001903F48006840F080003D4960
:102BE00008600846006800F08000019000BF00BF48
:102BF00000BF002001900846006840F00100086016
:102C00000846006800F00100019000BF00BF00BF4F
:102C1000002001900846006840F002000860084665
:102C2000006800F00200019000BF00BF00BF00205C
:102C300001900846006840F00400086008460068FB
:102C400000F00400019000BF00BF00224FF440419B
:102C50002148FFF7DCF800224FF400711F48FFF70E
:102C6000D6F800224FF480711D48FFF7D0F84FF4DA
:102C700080400290012003900220049000200590E3
:102C800002A91548FEF7BAFF4FF400400290012058
:102C9000039004900020059002A90F48FEF7AEFFB4
:102CA0004FF40070029001200390049000200590E2
:102CB00002A90A48FEF7A2FF4FF48070029001209B
:102CC000039004900020059002A90548FEF796FFA6
:102CD00007B000BD30380240000402400008024046
:102CE0000000024010B50B480B4908604FF4E1307A
:102CF0004860002108488160C16001610C21416188
:102D000000218161C161FFF7E1FD08B1FDF73AFCE7
:102D100010BD000000440040E409002000BFFEE7B1
:102D20007047704701464A1E084B9A5C520300EEFA
:102D3000902AF8EEE00A60EE800A9FED051AC0EED8
:102D4000811AFDEEE10A10EE900A70474043000838
:102D50000000B4432DE9F04387B007460C46154602
:102D60001E464FF001084FF0000900200390049028
:102D7000019505963846FEF7A3F900F0FF0904E037
:102D80003846FEF79DF900F0FF09B9F1000FF7D0C2
:102D90000123224601A93846FDF797FF8046B8F186
:102DA000000F03D0022007B0BDE8F0830020FAE74F
:102DB00070B505460E46012413E004F50070A842E4
:102DC0000ED1601EC0EBC0000849084431680160A4
:102DD000B1888180B1798171E0B200F041F870BDB5
:102DE000641C092CE9DB00BFF9E700006C07002038
:102DF0000146481E014A52F820007047A4070020EF
:102E000010B5014600204A1EC2EBC202134B1A4401
:102E100092780123B3EBE21F11D14A1EC2EBC2022A
:102E20000E4B1A44D3784A1EC2EBC2020B4C22440A
:102E3000927803EB0222A2F57F40FF380DE04A1E94
:102E4000C2EBC202054B1A44D3784A1EC2EBC2023F
:102E5000024C2244927803EB022010BD6C07002044
:102E600010B588B00146481EC0EBC0021F4B1A4483
:102E70005278C0EBC0031D4CE35C02EB03224DF81B
:102E800020205DF820201A4B53F82030D21AB2F5DA
:102E9000805F09DB174A52F82020A2F5F852FF3A6A
:102EA000144B43F8202011E05DF82020104B53F81C
:102EB0002030D21A12F5805F08DC0E4A52F820202A
:102EC00041F6FF731A440B4B43F820205DF8202095
:102ED000074B43F82020074A52F820205DF82030A5
:102EE0001A44054B43F8202008B010BD6C070020A1
:102EF000E4070020C4070020A407002070B52DEDD2
:102F0000088BF0EE408A0546681EC4B22846B0EE33
:102F1000680AFFF707FF00EE100AB8EEC00AB0EE2D
:102F2000408A9E4800EB841080ED008AE8B2FFF7EB
:102F30005FFF00EE100AB8EEC00A984800EB84105C
:102F400080ED010A954800EB841090ED020A934849
:102F500000EB841080ED030A904800EB841090EDA4
:102F6000010A38EE400A8D4800EB841080ED020A19
:102F70008A4800EB841090ED0E0A10EE101A0846F5
:102F8000FDF761F941EC190B844800EB841090EDDA
:102F9000020A10EE101A0846FDF755F941EC1B0B1A
:102FA000B0EE4B0AF0EE6B0AFDF7EEFAB0EE40AA77
:102FB000F0EE60AA53EC192B51EC1A0BFDF756F901
:102FC00006D29FED770A754800EB841080ED020A67
:102FD000724800EB841090ED040A704800EB8410F6
:102FE000D0ED020A30EE200A6C4800EB841080ED30
:102FF000040A6A4800EB841090ED040A674800EB6D
:103000008410D0ED0F0AB4EEE00AF1EE10FA05DB01
:10301000624800EB841090ED0F0A1DE05F4800EB62
:10302000841090ED040A5D4800EB8410D0ED0F0A87
:10303000F1EE600AB4EEE00AF1EE10FA07D8574854
:1030400000EB841090ED0F0AB1EE400A04E0534803
:1030500000EB841090ED040A504800EB841080EDE2
:10306000040A4E4800EB841090ED050A4B4800EB33
:103070008410D0ED020A20EE200A484800EB8410AC
:1030800080ED0A0A454800EB841090ED060A43489B
:1030900000EB8410D0ED040A20EE200A3F4800EB3C
:1030A000841080ED0B0A3D4800EB841090ED020A7D
:1030B0003A4800EB8410D0ED030A30EE600A37483E
:1030C00000EB8410D0ED070A20EE200A334800EB15
:1030D000841080ED0C0A314800EB841090ED0A0A50
:1030E0002E4800EB8410D0ED0B0A30EE200A2B485E
:1030F00000EB8410D0ED0C0A30EE200A274800EBDC
:10310000841080ED0D0A254800EB8410D0ED0D0AE7
:10311000224800EB841090ED080AB8EEC00AF4EEE5
:10312000C00AF1EE10FA07DB1C4800EB841090EDAA
:10313000080AB8EEC00A1DE0184800EB8410D0ED74
:103140000D0A164800EB841090ED090AB8EEC00A8B
:10315000F4EEC00AF1EE10FA07D8104800EB841024
:1031600090ED090AB8EEC00A04E00C4800EB8410A8
:1031700090ED0D0A094800EB841080ED0D0A074917
:1031800001EB841191ED0D0ABDEEC00A10EE100A9C
:10319000294600F051F8BDEC088B70BD28020020D4
:1031A0000000000070B505460C46012C3ADB082CE7
:1031B00038DC002600BF1C48854201DC054604E0DF
:1031C00042F21070854200DB0546042C0BDC4FF404
:1031D0000076C5F307216000801E144A1154600078
:1031E000401E15540CE040F2FF16201FC4B2C5F378
:1031F00007216000801E0E4A11546000401E1554C5
:10320000B6F5007F06D1B2B2082308490948FFF796
:10321000A1FD05E0B2B2082305490648FFF79AFD73
:10322000002070BD0120FCE7F0D8FFFF3004002033
:10323000280400209409002070B52DED068B064669
:103240000D46681EC4B200EE106AB8EEC00AA1486E
:1032500000EB841080ED000AE8B2FFF7D1FD00EE2C
:10326000100AB8EEC00A9B4800EB841080ED010AFA
:10327000984800EB841090ED020A964800EB841009
:1032800080ED030A934800EB841090ED000A91480A
:1032900000EB8410D0ED010A30EE600A8D4800EB9F
:1032A000841080ED020A8B4800EB841090ED0E0A2A
:1032B00010EE101A0846FCF7C6FF41EC180B8548C3
:1032C00000EB841090ED020A10EE101A0846FCF78D
:1032D000BAFF41EC1A0BB0EE4A0AF0EE6A0AFDF7AB
:1032E00053F9B0EE409AF0EE609A53EC182B51EC83
:1032F000190BFCF7BBFF06D29FED770A754800EB70
:10330000841080ED020A734800EB841090ED040AEB
:10331000704800EB8410D0ED020A30EE200A6D48B0
:1033200000EB841080ED040A6A4800EB841090EDF5
:10333000040A684800EB8410D0ED0F0AB4EEE00AEE
:10334000F1EE10FA05DB634800EB841090ED0F0AF4
:103350001DE0604800EB841090ED040A5D4800EB2E
:103360008410D0ED0F0AF1EE600AB4EEE00AF1EE3F
:1033700010FA07D8574800EB841090ED0F0AB1EE11
:10338000400A04E0534800EB841090ED040A5148D1
:1033900000EB841080ED040A4E4800EB841090EDA1
:1033A000050A4C4800EB8410D0ED020A20EE200AFA
:1033B000484800EB841080ED0A0A464800EB841070
:1033C00090ED060A434800EB8410D0ED040A20EE8D
:1033D000200A404800EB841080ED0B0A3D4800EBCA
:1033E000841090ED020A3B4800EB8410D0ED030AF4
:1033F00030EE600A374800EB8410D0ED070A20EE6B
:10340000200A344800EB841080ED0C0A314800EBB0
:10341000841090ED0A0A2F4800EB8410D0ED0B0ABF
:1034200030EE200A2B4800EB8410D0ED0C0A30EE71
:10343000200A284800EB841080ED0D0A254800EB97
:103440008410D0ED0D0A234800EB841090ED080A9B
:10345000B8EEC00AF4EEC00AF1EE10FA07DB1D4820
:1034600000EB841090ED080AB8EEC00A1DE0194880
:1034700000EB8410D0ED0D0A164800EB841090ED9F
:10348000090AB8EEC00AF4EEC00AF1EE10FA07D845
:10349000104800EB841090ED090AB8EEC00A04E071
:1034A0000C4800EB841090ED0D0A0A4800EB8410E4
:1034B00080ED0D0AE9B2074A02EB841292ED0D0A83
:1034C000BDEEC00A10EE100AFFF76CFEBDEC068BD5
:1034D00070BD0000280000200000000070470000C0
:1034E00010B52DED048BB0EE408AF0EE608AB0EEA0
:1034F000419AB1EE680A30EE080A30EE490ABDEE94
:10350000C00A134880ED000AB1EE680A30EE480A9E
:1035100030EE090ABDEEC00A80ED020AB1EE680A7B
:1035200030EE080A30EE090ABDEEC00A80ED040A4A
:10353000B1EE680A30EE480A30EE490ABDEEC00A24
:1035400080ED060A00F0BCFBBDEC048B10BD000052
:103550000800002010B5FEF767FC10BD00B593B061
:10356000302107A8FCF764FE142102A8FCF760FED6
:1035700000BF002001902448006840F0805022499C
:1035800008600846006800F08050019000BF00BF4E
:1035900000BF002001901D48006840F480401B4996
:1035A00008600846006800F48040019000BF00BF3A
:1035B000012007900004089002200D9041050E9113
:1035C00019210F914FF4A87110910221119104213A
:1035D000129107A8FEF73EFE08B1FCF7D3FF0F20BB
:1035E000029002200390002004904FF4A050059018
:1035F0004FF480500690052102A8FEF7EBFC08B1BD
:10360000FCF7C0FF13B000BD40380240007000401E
:103610000548006840F47000034908604FF00060FE
:10362000014980390860704788ED00E070B50546B3
:10363000AC6B0020E085E0842046FFF79CF870BD6D
:1036400070B506460025B46B20684069C0F3C0150C
:1036500094F83900212805D125B10020E0842046C6
:1036600000F060F820684069C0F3801594F83A00D3
:10367000222805D125B10020E085204600F032F84F
:10368000E06B40F01000E0632046FFF774F870BD77
:1036900070B50546AC6B2868006800F48070B0B95E
:1036A0000020E0852068C06820F480702168C86030
:1036B0002068406920F00100216848612068406965
:1036C00020F0400021684861202084F83A0020461C
:1036D000FFF716FA70BD70B50446A56B2846FFF7D4
:1036E00010FA70BD0168C96821F490710268D16058
:1036F0000168496921F0010102685161202180F8C7
:103700003A10704710B504462068C06820F04000A9
:103710002168C860202084F839002046FFF7F2F9BC
:10372000002010BD0168C96821F0C0010268D160A5
:10373000202180F83910704770B5044694F83A009B
:1037400022284AD1A068B0F5805F13D1A56A20690C
:1037500040B920684068C0F308002880A06A801C37
:10376000A06219E020684068C0B22880A06A401CAE
:10377000A06211E0206938B920684068C1B2A26A2D
:10378000501CA062117007E02068406800F07F01C3
:10379000A26A501CA0621170E08D401E80B2E085CC
:1037A000C8B92068C06820F020002168C86020687F
:1037B000C06820F480702168C8602068406920F0EB
:1037C000010021684861202084F83A002046FFF774
:1037D00097F9002070BD0020FCE70220FAE7000006
:1037E0002DE9F84F04462068006920F44050E16854
:1037F0000843216808612169A0680843616908439A
:10380000E169084300902068C06849F20C61884370
:10381000009908432168C8602068406920F440701E
:10382000A169084321684861E069B0F5004F75D18E
:10383000E3492068884203D0E249206888426FD17A
:10384000FEF7A0FC814602206168A0FB01510B46F7
:103850001920A9FB00712A463846FCF7B1FC642107
:10386000B0FBF1F04FEA001A02206168A0FB0151A1
:103870000B461920A9FB00712A463846FCF7A0FC2C
:10388000074602206168A0FB01510B461920A9FBE5
:1038900000B12A465846FCF793FC6421B0FBF1F0D6
:1038A00000EBC00101EB0010A7EB8000322101EB1F
:1038B000C0006421B0FBF1F000F0F8000AEB400A10
:1038C00002206168A0FB01510B461920A9FB007181
:1038D0002A463846FCF774FC074602206168A0FBC4
:1038E00001510B461920A9FB00B12A465846FCF7A6
:1038F00067FC6421B0FBF1F000EBC00101EB0010AC
:10390000A7EB8000322101EBC0006421B0FBF1F095
:1039100000F007005044216888604FE16EE0FFE747
:10392000FEF720FC814602206168A0FB01510B4696
:103930001920A9FB00712A463846FCF741FC642196
:10394000B0FBF1F04FEA001A02206168A0FB0151C0
:103950000B461920A9FB00712A463846FCF730FCBB
:10396000074602206168A0FB01510B461920A9FB04
:1039700000B12A465846FCF723FC6421B0FBF1F065
:1039800000EBC00101EB0010A7EB8000322101EB3E
:10399000C0006421B0FBF1F000F0F8000AEB400A2F
:1039A00002206168A0FB01510B461920A9FB0071A0
:1039B0002A463846FCF704FC074602206168A0FB53
:1039C000015003461920A9FB00B12A465846FCF7CE
:1039D000F7FB6421B0FBF1F000EBC00101EB00103C
:1039E000A7EB8000322101EBC0006421B0FBF1F0B5
:1039F00000F00700504421688860DFE070492068CB
:103A0000884203D06F49206888426BD1FEF7BAFB29
:103A1000814604206168A0FB01510B461920A9FBD7
:103A200000712A463846FCF7CBFB824604206168C9
:103A3000A0FB01510B461920A9FB00712A4638460C
:103A4000FCF7BEFB6421B0FBF1F000EBC00101EB21
:103A50000010AAEB8000322101EB00106421B0FBC2
:103A6000F1F000F0F00A04206168A0FB0150034669
:103A70001920A9FB00712A463846FCF7A1FB6421F6
:103A8000B0FBF1F00AEB001A04206168A0FB0151C1
:103A90000B461920A9FB00712A463846FCF790FB1B
:103AA000074604206168A0FB015003461920A9FBCA
:103AB00000B12A465846FCF783FB6421B0FBF1F0C5
:103AC00000EBC00101EB0010A7EB8000322101EBFD
:103AD00000106421B0FBF1F000F00F0050442168A9
:103AE00088606BE0FEF73EFB814604206168A0FB26
:103AF000015003461920A9FB00712A463846FCF7FD
:103B00005FFB824604206168A0FB01500346192038
:103B1000A9FB00712A463846FCF752FB6421B0FB32
:103B2000F1F000EBC00101EB0010AAEB80003221A4
:103B300001EB00106421B0FBF1F000F0F00A04206A
:103B40006168A0FB015003461920A9FB00712A46B9
:103B50003846FCF735FB6421B0FBF1F00AEB001AA4
:103B600004206168A0FB017003461920A9FB0050E6
:103B700001463A462846FCF723FB074604206168C5
:103B8000A0FB015003461920A9FB00B12A46584664
:103B9000FCF716FB6421B0FBF1F000EBC00101EB78
:103BA0000010A7EB8000322101EB00106421B0FB74
:103BB000F1F000F00F00504421688860BDE8F88FF4
:103BC0000010014000140140014691F839002128FD
:103BD0002CD18868B0F5805F0FD10A6A1088C0F3D5
:103BE00008000B685860086918B9086A801C0862E8
:103BF00009E0086A401C086205E00B6A581C08626C
:103C000018780B685860C88C401E80B2C88458B9B8
:103C10000868C06820F080000B68D8600868C06839
:103C200040F040000B68D860002070470220FCE79D
:103C300010B50348FEF7A0FD014800F01DF810BDC7
:103C4000E409002070B505460848FEF761FD084804
:103C500000684068C0F1FF00C4B200F067F90024BA
:103C6000FF2204490148FEF7E9FE70BDE409002087
:103C7000240A00209408002038B504460D48006846
:103C80000D49884215D10B4800680068C0F3001048
:103C900078B100BF002000900648006800680090DE
:103CA000044800684068009000BF00BF2046FFF74E
:103CB000C9FF38BDE40900200044004000BFFEE712
:103CC00070B5012415E0601E45B20B4800EBC5003D
:103CD000406830B1084850F835004042064941F884
:103CE0003500054951F835002146FFF7A5FA601C5B
:103CF00044B2042CE7DD70BD0800002002480068D3
:103D0000C0F30220704700000CED00E010B5002861
:103D100004DB0A07130E054A135406E00A07140EC3
:103D2000034A00F00F031B1FD45410BD00E400E051
:103D300018ED00E002E008C8121F08C1002AFAD1FD
:103D400070477047002001E001C1121F002AFBD11B
:103D50007047000010B504462248005D462827D071
:103D6000612804D062280DD0632838D115E01D49A0
:103D7000A01C085C752804D14FF480711A48FEF726
:103D80003DF82CE01749A01C085C752804D14FF4BD
:103D900080411648FEF732F821E01249A01C085C69
:103DA000752804D14FF400411048FEF727F816E0BB
:103DB0000C49A01C085C642805D1012251020C4862
:103DC000FEF725F80AE00749A01C085C752805D114
:103DD00000224FF400710648FEF719F800BF00BF3B
:103DE00010BD0000940800200000024000040240C2
:103DF000000802402449095C3C291DD03E2902D01C
:103E000052293FD131E0204A811C515C752904D1EF
:103E10001E490968491F1D4A11601B4A411C515C1B
:103E20003E2908D1C11C515C752904D11749096884
:103E30001E39164A116025E0134A811C515C752910
:103E400004D112490968491D104A11600E4A411CEB
:103E5000515C3C2908D1C11C515C752904D10B4926
:103E600009681E31094A11600CE0074A811C515C47
:103E7000532906D1811D515C752902D16421034A61
:103E8000116000BF00BF7047940800205407002055
:103E90002349095C2B2923D02D2930D0442910D067
:103EA00055293BD11E4AC11C515C752908D11D49B9
:103EB00091ED000AF2EE040A30EE600A81ED000A8C
:103EC0002CE0174A411D515C752908D1154991ED27
:103ED000000AF2EE040A30EE200A81ED000A1DE02D
:103EE0000F4A811C515C752908D10E4991ED000AD9
:103EF000DFED0D0A30EE600A81ED000A0EE0084A9F
:103F0000811C515C752908D1064991ED000ADFED4D
:103F1000060A30EE200A81ED000A00BF00BF70479C
:103F200094080020440700200000344270B50020AF
:103F3000124908701249087012490870012012498C
:103F40000860124800684068C0F1FF00C5B2002454
:103F500010E0204600F01CF8204600F003F920464F
:103F6000FFF7F8FE2046FFF745FF2046FFF790FFDA
:103F7000601CC4B2681EA042EBDA70BD00000020D5
:103F8000010000200200002004000020240A00207C
:103F90006C49095C78290ED16B49097859B901211E
:103FA000694A11700021694A1160694A1160012152
:103FB000684A1160C5E064490978012908D161495E
:103FC000095C2D2904D14FF0FF31624A1160B8E03D
:103FD0005D490978012916D15F49097899B959498C
:103FE000095C39290FDC5749095C30290BDB55493D
:103FF000095C3039554A126802EB820201EB42013A
:10400000524A11609DE050490978012910D14D496B
:10401000095C3B290CD14F4909684C4A126851434D
:104020004A4A116001214C4A11704A4A116088E0E5
:1040300045490978012917D147490978012913D140
:104040004049095C39290FDC3E49095C30290BDB0A
:104050003C49095C30393E4A126802EB820201EBAE
:1040600042013B4A11606CE03649095C78290DD168
:1040700038490968364A12685143354A11600021AF
:10408000314A11700121334A11605AE02D49095C0F
:1040900079290CD13149097849B901212F4A117088
:1040A00000212F4A116001212A4A116049E02B4961
:1040B0000978012908D12349095C2D2904D14FF041
:1040C000FF31244A11603CE024490978012916D1C6
:1040D0002149097899B91B49095C39290FDC19492B
:1040E000095C30290BDB1749095C30391C4A12681E
:1040F00002EB820201EB4201194A116021E01749EB
:104100000978012910D10F49095C3B290CD11149CB
:104110000968134A12685143114A116001210E4A7D
:1041200011700C4A11600CE00649095C792908D12C
:1041300000210A4A11700121064A11600021064A35
:1041400011707047940800200000002048070020EC
:104150004C07002004000020010000200200002085
:10416000500700201549095C48291AD04C2902D073
:104170004D2921D10AE0114A811C515C752904D1D5
:10418000B2EE0E0A0E4981ED000A15E00B4A811CC1
:10419000515C752904D1B3EE090A094981ED000A81
:1041A0000AE0064A811C515C752904D19FED050A7D
:1041B000034981ED000A00BF00BF7047940800204A
:1041C0004007002000000C422DED028BFDF738FE69
:1041D000FFF7C4F9FEF7F6FCFEF7D8FCFEF796FCF5
:1041E000FEF7B4FCFEF77EFD4948FCF7EFF84948BE
:1041F000FCF7ECF848480068C06840F010004649F9
:104200000968C860FF2245494348FEF717FC0122B0
:1042100091034348FDF7FBFD0122D1034048FDF720
:10422000F6FD012211023F48FDF7F1FD6FE03E4827
:10423000006810F1960F48DB3B480068962844DC84
:104240003A48006810F1960F3FDB3848006896281E
:104250003BDC3748006810F1960F36DB34480068C5
:10426000962832DC324890ED000AB8EEC00A314898
:10427000D0ED000A20EE200AF0EE000A20EE200A1F
:10428000F0EE080A80EE201AB0EE418A274890ED41
:10429000001AB8EEC11A2748D0ED001A21EE211AF3
:1042A000F0EE410A204890ED001AB8EEC11A2148FC
:1042B000D0ED001A21EE211AB0EE410AB0EE481AF4
:1042C000FFF70EF90120FDF785FC1B480068412827
:1042D00003DA41201849086008E017480068B0F583
:1042E000967F03DD4FF4967013490860022112484F
:1042F0000068FCF767FA0120FDF76CFC05200F4908
:1043000091ED000AFEF7FAFD0120FDF763FC8EE750
:1043100094090020BC090020E40900209408002032
:104320000004024000000240480700204C07002023
:1043300050070020400700205407002044070020B9
:1043400013131313131313130101010101010101CD
:104350000006101600061016000000000000000005
:10436000010203040607080900000000010203041B
:1043700090430008000000206C0700003003000894
:10438000744400086C0700201C070000443D00082E
:10439000417201690801100916183182411B803EE3
:1043A000040412C1FFFF1A20240B1C7A44400B3A6C
:1043B0004041400D38CDCC4C3F400B40803FC009C0
:1043C0003E400B7C404180093440200FCDCC4C3E18
:1043D0006F12833A0AD7233CB0360B1250C94013F0
:1043E000C8420414409C46293881095840310915B7
:1043F0004019C00E38400AD7A33B400B3DCC3DC00E
:104400000E363E6F12833A80314A3FC00B1820416E
:10441000400B184843C04B4C4040091A800B19FA16
:1044200044806964824214E093040C14206CFBC83D
:10443000910A2DF030092E60293023803F0BE4A033
:104440004030292C2127CDCC4C3D08020C7BF8FDB7
:10445000FF307CCDCCAC302340010B1CC0FE300CB7
:10446000B96666A63003107041B25032101943216C
:044470001324F4001D
:040000050800018965
:00000001FF
