:020000040800F2
:100000006004002001010008070E00083D0D0008F3
:10001000050E00086D0100089710000800000000A0
:100020000000000000000000000000000B0E0008AF
:100030006F01000800000000090E00080D0E000806
:100040001B0100081B0100081B0100081B01000820
:100050001B0100081B0100081B0100081B01000810
:100060001B0100081B0100081B0100081B01000800
:100070001B0100081B0100081B0100081B010008F0
:100080001B0100081B0100081B0100081B010008E0
:100090001B0100081B0100081B0100081B010008D0
:1000A0001B0100081B0100081B0100081B010008C0
:1000B0001B0100081B0100081B0100081B010008B0
:1000C0001B0100081B0100081B0100081B010008A0
:1000D0001B0100081B0100081B0100081B01000890
:1000E0001B0100081B0100081B010008DFF80CD0F1
:1000F00000F02AF800480047D910000860040020EA
:100100000648804706480047FEE7FEE7FEE7FEE7B1
:10011000FEE7FEE7FEE7FEE7FEE7FEE75F0E00080C
:10012000ED000008D2B201E000F8012B491EFBD21D
:1001300070470022F6E710B513460A4604461946F2
:10014000FFF7F0FF204610BD064C074D06E0E068C3
:1001500040F0010394E8070098471034AC42F6D30E
:10016000FFF7C8FF3C1100085C110008FEE770476C
:100170007047000070B5044600F0FEF80546601CAC
:1001800002D004480078044400F0F6F8401BA04276
:10019000FAD370BD040000202DE9F84FDFF8B891C4
:1001A000002409F1040A0AF1040B23460F270BF17E
:1001B000040EC9E00125A5402A40AA427DD1674E20
:1001C000D1F804C0ACEB0608B44532D014DCBCF165
:1001D000030F3AD009DCBCF1000F2AD0BCF1010FAB
:1001E0001CD0BCF1020F31D11DE0BCF1110F17D0B2
:1001F000BCF1120F2AD119E0B8F5881F19D006DC1E
:10020000B8F5803F15D0B8F5801F1FD111E0B8F5C3
:10021000001F0ED0B8F5041F18D10AE0CB6815E016
:10022000CB681B1D12E0CB6808330FE0CB680C33A2
:100230000CE08B682BB1012B4FF0080303D0456114
:1002400004E0042302E0056100E00023FF2A01D856
:10025000064601E000F104064FEA840501D9A5F144
:100260002005D6F8008007FA05FC28EA0C0803FAF6
:1002700005F548EA0508C6F800804D68ED0062D52E
:10028000374DAE6946F00106AE61AD6924F0030654
:1002900005F001050095334D06EB050CDCF8085020
:1002A000A607360F07FA06F825EA0805DFF8B88032
:1002B000404503D14FF0000817E044E0DFF8AC8080
:1002C000404502D14FF001080FE0DFF8A48040451F
:1002D00002D14FF0020808E0DFF89880404502D1D3
:1002E0004FF0030801E04FF0040808FA06F848EA66
:1002F0000508CCF808804D68D9F80060ED034D463C
:1003000001D5164300E096432E604D68DAF8006090
:10031000AD03554601D5164300E096432E604D6867
:10032000DBF80060ED025D4601D5164300E0964320
:100330002E604D68DEF80060AD02754601D51643AB
:1003400000E096432E60641C0D682A46E5407FF469
:1003500031AFBDE8F88F000000040140000011102B
:10036000001002400000014000080140000C014064
:1003700000100140001401400148806870470000EF
:1003800004000020024881680278114481607047AF
:1003900004000020074810B5016841F01001016019
:1003A000032000F067F8002000F006F800F024F8C1
:1003B000002010BD0020024070B50D4D04464FF4E2
:1003C0007A712878B1FBF0F00A490968B1FBF0F0C6
:1003D00000F0BEFA48B9102C07D200222146501E68
:1003E00000F028F800206C6070BD012070BD000096
:1003F00004000020100000200C4808B5816941F07D
:1004000001018161816901F001010091C16941F03F
:100410008051C161C06900F080500090044841687B
:1004200021F0E06141F00071416008BD0010024020
:1004300000000140F0B40E4B1B680C46C3F30223CE
:10044000C3F10705042D00D90425191D072901D280
:10045000002300E0DB1E012606FA05F1491E2140BB
:1004600099409E40761E16403143F0BC00F014BE09
:100470000CED00E0064900F0070208684FF6FF03A4
:10048000184040EA0220034A104308607047000009
:100490000CED00E00000FA052DE9F0470F460500DD
:1004A00061D0434E306800F00700B84209D230688E
:1004B00020F0070038433060306800F00700B84291
:1004C00051D128683B4C810712D5400703D560689D
:1004D00040F4E06060602878000703D5606840F46D
:1004E000605060606068A96820F0F00008436060B8
:1004F0002878C00728D06868012810D02168022811
:1005000010D0890700292EDA616821F00301014328
:100510006160FFF731FF804641F288390DE02168C4
:100520008903EFE78901EDE7FFF726FFA0EB08015C
:10053000494502D90320BDE8F0876068696800F08A
:100540000C00B0EB810FEFD1306800F00700B8422B
:100550000BD9306820F0070038433060306800F075
:100560000700B84201D00120E5E72878400705D50B
:100570006068E96820F4E06008436060287800075C
:1005800006D56068296920F4605040EAC1006060C7
:1005900000F018F86168084AC1F30311515CC840C3
:1005A0000649086006480068FFF706FF0020C2E71A
:1005B00000200240001002402C1100081000002012
:1005C0000800002012A185B00FC98DE80F0014A00B
:1005D000144A006804905168134801F00C03042B7E
:1005E00010D0082B0ED1C1F38343C9031DF80300BB
:1005F0000AD5516804AAC1F34041515C0A4A5043EC
:10060000B0FBF1F005B0704708494843FAE7000035
:1006100002030405060708090A0B0C0D0E0F101043
:10062000010200000010024000127A0000093D00A3
:100630002DE9F84F040070D02078C04DC00749D094
:100640006868C0F38100012807D06868C0F38100A2
:10065000022809D16868C00306D52868800339D507
:1006600060680028E7D035E06068B0F5803F0BD0C7
:1006700010B1B0F5A02F11D0286820F48030286088
:10068000286820F4802002E0286840F48030286048
:10069000606890B1FFF770FE06460AE0286840F4F3
:1006A00080202860F0E700BFFFF766FE801B64280B
:1006B00073D828688003F7D50CE0FFF75DFE064687
:1006C00005E000BFFFF758FE801B6428F0D82868BB
:1006D0008003F7D420789A4E80074FF001094FF03D
:1006E000000839D5686810F00C0F07D06868C0F3AF
:1006F0008100022809D16868C00306D428688007F1
:1007000014D52069012808D110E02069B0B1C6F8DD
:100710000090FFF731FE074605E00AE1FFF72CFEE7
:10072000C01B0228C4D828688007F7D528686169EB
:1007300020F0F80040EAC10028600DE0C6F8008013
:10074000FFF71AFE074604E0FFF716FEC01B02285B
:1007500023D828688007F7D4207800072CD579485B
:10076000A169D9B1C0F80090FFF706FE074604E082
:10077000FFF702FEC01B02280FD8686A8007F7D572
:1007800071484FF4FA510068B0FBF1F0009000BFDF
:100790000098411E0091FAD20EE080E0C0F800807F
:1007A000FFF7EAFD074604E0FFF7E6FDC01B02285D
:1007B00075D8686A8007F7D42078400760D5E86963
:1007C0000027C00008D4E86940F08050E861E8697B
:1007D000012700F0805000905C480168C90513D4DF
:1007E0000168834641F480710160FFF7C5FD8246D0
:1007F00006E000BFFFF7C0FDA0EB0A0064284ED85A
:10080000DBF80000C005F5D5E06801280AD008B182
:10081000052813D0286A20F001002862286A20F0F9
:10082000040002E0286A40F001002862E06841F21A
:10083000883B98B1FFF7A0FD82460BE0286A40F0A4
:1008400004002862EEE700BFFFF796FDA0EB0A0167
:1008500059455AD8286A8007F6D50CE0FFF78CFD79
:10086000824605E0FFF788FDA0EB0A0159454CD808
:10087000286A8007F6D41FB1E86920F08050E8614B
:10088000E06988B36968C1F38101022944D0022874
:10089000C6F8608004D0FFF76FFD044638E034E00E
:1008A000FFF76AFD074604E0FFF766FDC01B02285C
:1008B0002BD828688001F7D4206AB0F5803F05D195
:1008C0006868A16820F4003008436860D4E9080132
:1008D0000843696821F4741108436860C6F86090A1
:1008E000FFF74AFD044606E025E000BFFFF744FDA0
:1008F000001B022809D828688001F7D51BE000BF3B
:10090000FFF73AFD001B022802D90320BDE8F88F4B
:1009100028688001F4D40EE00128F7D06868226AC4
:1009200000F48031914204D1616A00F47010884271
:1009300001D00120EAE70020E8E7000000100240B3
:10094000000042428004424210000020007000403B
:1009500010B5401EB0F1807F01D3012010BD4FF0D3
:10096000E02460610F21601700F096FB0020A06179
:1009700007202061002010BD70B590F83C20012AAE
:1009800026D0012480F83C40022280F83D200368F4
:100990005A689D6822F070060A6832435A600D4B0F
:1009A00002689A4208D0B2F1804F05D00A4B9A42B1
:1009B00002D00A4B9A4204D1496825F080031943BA
:1009C000916080F83D40002180F83C10084670BDE1
:1009D000022070BD002C01400004004000080040CF
:1009E00010B5040003D094F83D0010B107E00120D9
:1009F00010BD002084F83C00204600F01FF80220C3
:100A000084F83D00211D206800F02AFA012084F8B6
:100A1000460084F83E0084F83F0084F8400084F8E3
:100A2000410084F8420084F8430084F8440084F8CC
:100A3000450084F83D00002010BD000008B50068A6
:100A4000B0F1804F08D10548C16941F00101C16191
:100A5000C06900F00100009008BD000000100240D5
:100A600070B5044690F83C00012817D0012584F8A1
:100A70003C50022084F83D002068826822F0770212
:100A800022F47F4282600868502830D00DDC202894
:100A90004DD005DC98B310283BD148E0022070BD52
:100AA000302844D0402834D139E0602828D070283C
:100AB00006D0B0F5805F2CD0B0F5005F29D10AE0F8
:100AC000CB68D1E90121206800F00DFA2068816827
:100AD00041F0770109E0CB68D1E90121206800F0FD
:100AE00002FA2068816841F48041816011E0CA689F
:100AF0004968206800F0ACFA5021206807E016E051
:100B0000CA684968206800F0B4FA6021206800F0E3
:100B1000F4F984F83D50002084F83C0070BDCA68A8
:100B20004968206800F094FA40212068EFE72268C5
:100B300001461046EBE7000000B585B000210091AA
:100B40000191029103910068B0F1804F10D10948E2
:100B5000816941F0040181618069694600F0040007
:100B6000049002200090019003900348FFF714FBCB
:100B700005B000BD001002400008014070B50446F9
:100B800090F83C000D4601280AD0012084F83C0072
:100B900042B1042A18D0082A2AD00C2A4DD139E0B3
:100BA000022070BD206800F0B1F92068816941F031
:100BB000080181612068816921F004018161206858
:100BC00081692A69114311E0206800F0C7F92068A3
:100BD000816941F4006181612068816921F480614B
:100BE0008161206881692A6941EA0221816124E0EA
:100BF000206800F0DFF92068C16941F00801C16197
:100C00002068C16921F00401C1612068C1692A69B5
:100C1000114311E0206800F0F9F92068C16941F43E
:100C20000061C1612068C16921F48061C1612068EF
:100C3000C1692A6941EA0221C161002084F83C00AF
:100C400070BD10B5040003D094F83D0010B107E06A
:100C5000012010BD002084F83C00204600F01EF862
:100C6000022084F83D00211D206800F0F9F80120E1
:100C700084F8460084F83E0084F83F0084F8400081
:100C800084F8410084F8420084F8430084F844006A
:100C900084F8450084F83D00002010BD7047000036
:100CA00010B50446022249B104290ED0082913D0F8
:100CB00094F84100012816D0012010BD94F83E00A0
:100CC0000128F9D184F83E200FE094F83F00012874
:100CD000F2D184F83F2008E094F840000128EBD1DD
:100CE00084F8402001E084F841200122206800F0CF
:100CF000EDF80F492068884203D1426C42F400426B
:100D000042642068884208D0B0F1804F05D009497C
:100D1000884202D00849884204D1816801F0070165
:100D2000062903D0016841F001010160002010BDD7
:100D3000002C01400004004000080040FEE70000D5
:100D4000094808B5816941F020018161816901F09C
:100D500020010091816941F004018161806900F006
:100D60000400009008BD00000010024010B58EB0D5
:100D700000240794089409940A940B941C21684653
:100D80000C94FFF7D6F91E484FF0804101604721CF
:100D9000C0E9011440F2F311C0E903148461FFF7C4
:100DA0001FFE08B1FFF7E4F94FF48050079007A940
:100DB0001348FFF755FE08B1FFF7DAF91048FFF7BF
:100DC00040FF08B1FFF7D4F90B940BA90C480C9421
:100DD000FFF7D2FD08B1FFF7CBF96020CDE90004A1
:100DE00002940422694606480494FFF7C7FE08B13E
:100DF000FFF7BEF90248FFF79FFE0EB010BD0000DE
:100E000014000020FEE7704770477047FFF7BABA3A
:100E100030B58FB028216846FFF78BF914210AA856
:100E2000FFF787F901210804CDE90010002402949E
:100E300002250491CDE907504FF4E010099068466F
:100E4000FFF7F6FB0F20CDE90A056802CDE90C405B
:100E500002210AA80E94FFF71FFB0FB030BD7047A8
:100E6000F0B50268164B174C174D4FF0804798426B
:100E700005D0B84203D0A04201D0A84203D122F04D
:100E800070064A683243984205D0B84203D0A04267
:100E900001D0A84203D122F44074CA6822434C69AD
:100EA00022F08002224302608A68C2620A6882627B
:100EB000984201D10969016301214161F0BD00003F
:100EC000002C0140000400400008004010B501F073
:100ED0001F030121046A99408C430462016A9A400D
:100EE0001143016210BD10B5846842EA032224F464
:100EF0007F440A432243826010BD826822F0700260
:100F00000A4342F0070181607047000030B5026A71
:100F100022F001020262026A4368846924F07305C8
:100F20000C682C4322F002058A682A430A4DA84225
:100F30000BD122F00805CA6823F440732A434D6997
:100F400022F004021D438B692B434360846149688E
:100F50004163026230BD0000002C014030B5026ADE
:100F600022F010020262026A436884690D6824F468
:100F7000E64444EA05248D6822F0200242EA051284
:100F80000B4DA8420ED1CD6822F0800242EA051234
:100F90004D6923F4406343EA85038D6922F04002E2
:100FA00043EA85034360846149688163026230BD1E
:100FB000002C014030B5026A22F480720262036A9A
:100FC0004268C46923F4007324F073050C682C4351
:100FD0008D6843EA05230C4DA8420ED1CD6823F459
:100FE000006343EA05234D6922F4405242EA0512A8
:100FF0008D6923F4806342EA05124260C461496846
:10100000C163036230BD0000002C014030B5026AAC
:1010100022F480520262046A4268C3690D6823F4B4
:10102000E64343EA05238D6824F4005444EA05347A
:10103000064DA84204D14D6922F4804242EA85124D
:101040004260C36149680164046230BD002C014004
:1010500010B5036A046A24F001040462846924F070
:10106000F00444EA021423F00A020A438461026293
:1010700010BD10B5036A23F0100303628369046A8C
:1010800023F4704343EA023224F0A00343EA01113F
:101090008261016210BDFEE70907090E002804DB2A
:1010A00000F1E02080F80014704700F00F0000F11C
:1010B000E02080F8141D704702E008C8121F08C124
:1010C000002AFAD170477047002001E001C1121FC9
:1010D000002AFBD170470000FFF75CF9FFF798FE8C
:1010E000FFF72EFEFFF742FE04210E48FFF7D8FD62
:1010F0000C4E0D4C00254FF4FA773220FFF73AF8EA
:101100002088B84201D905B9012530B13DB10A386E
:101110002080316880B28863EFE705B100250A308E
:10112000F6E700001400002000000020000000008E
:101130000000000001020304060708095C11000812
:101140000000002014000000B81000087011000812
:10115000140000204C040000C8100008000000002B
:101160000100000010000000000000000024F40056
:04000005080000ED02
:00000001FF
